{
  "transactions": [
    {
      "hash": "0xca7d81ac5e3a46e0c001f6c77ae19ea8e9f565062a7204d7b50bc57d81dd757e",
      "transactionType": "CREATE2",
      "contractName": "APEthStorage",
      "contractAddress": "0x106e18e0fd8732ed67520e104534a08c77a2213f",
      "function": null,
      "arguments": null,
      "transaction": {
        "from": "0x51336769321de54925e2da6881d7bdcb02258d5e",
        "to": "0x4e59b44847b379578588920ca78fbf26c0b4956c",
        "gas": "0xc2e48",
        "value": "0x0",
        "input": "0x0000000000000000000000000000000000000000000000000000000000006969608060405234801561001057600080fd5b50600380546001600160a01b0319163217905561090f806100326000396000f3fe608060405234801561001057600080fd5b506004361061010b5760003560e01c80638a0dac4a116100a2578063bd02d0f511610071578063bd02d0f51461022f578063ca446dd91461025d578063e2a4853a14610270578063e2b202bf14610283578063ebb9d8c91461029657600080fd5b80638a0dac4a146101e5578063a75b87d2146101f8578063abfdcced14610209578063adb353dc1461021c57600080fd5b80634a4f54c6116100de5780634a4f54c6146101865780634bd6f7ca1461019757806367a6a917146101aa5780637ae1cfca146101b257600080fd5b80630e14a376146101105780631e0ea61e1461012557806321f8a7211461012d5780632c62ff2d14610173575b600080fd5b61012361011e3660046107bd565b6102a9565b005b61012361030b565b61015661013b3660046107bd565b6000908152600160205260409020546001600160a01b031690565b6040516001600160a01b0390911681526020015b60405180910390f35b6101236101813660046107bd565b6103a3565b6005546001600160a01b0316610156565b6101236101a53660046107f2565b6103ff565b610123610476565b6101d56101c03660046107bd565b60009081526002602052604090205460ff1690565b604051901515815260200161016a565b6101236101f33660046107f2565b610522565b6003546001600160a01b0316610156565b610123610217366004610814565b61056f565b61012361022a366004610849565b6105d3565b61024f61023d3660046107bd565b60009081526020819052604090205490565b60405190815260200161016a565b61012361026b36600461086b565b61063e565b61012361027e366004610849565b6106b0565b6101236102913660046107bd565b610706565b6101236102a4366004610849565b61075b565b6005546001600160a01b031633148015906102cf57506003546001600160a01b03163314155b156102ed57604051637783a63d60e01b815260040160405180910390fd5b600090815260016020526040902080546001600160a01b0319169055565b6004546001600160a01b031633146103365760405163e3c402fb60e01b815260040160405180910390fd5b60038054600480546001600160a01b038082166001600160a01b0319808616821790965594909116909155604080519190921680825260208201939093527fa14fc14d8620a708a896fd11392a235647d99385500a295f0d7da2a258b2e96791015b60405180910390a150565b6005546001600160a01b031633148015906103c957506003546001600160a01b03163314155b156103e757604051637783a63d60e01b815260040160405180910390fd5b6000908152600260205260409020805460ff19169055565b6003546001600160a01b0316331461042a5760405163442d052360e01b815260040160405180910390fd5b6005546001600160a01b031615610454576040516309d64e4560e21b815260040160405180910390fd5b600580546001600160a01b0319166001600160a01b0392909216919091179055565b6003546001600160a01b031633146104a15760405163442d052360e01b815260040160405180910390fd5b6004546001600160a01b031661dead146104ce5760405163840d41b160e01b815260040160405180910390fd5b600380546001600160a01b03198116909155604080516001600160a01b0390921680835260006020840152917fa14fc14d8620a708a896fd11392a235647d99385500a295f0d7da2a258b2e9679101610398565b6003546001600160a01b0316331461054d5760405163442d052360e01b815260040160405180910390fd5b600480546001600160a01b0319166001600160a01b0392909216919091179055565b6005546001600160a01b0316331480159061059557506003546001600160a01b03163314155b156105b357604051637783a63d60e01b815260040160405180910390fd5b600091825260026020526040909120805460ff1916911515919091179055565b6005546001600160a01b031633148015906105f957506003546001600160a01b03163314155b1561061757604051637783a63d60e01b815260040160405180910390fd5b600082815260208190526040812080548392906106359084906108ad565b90915550505050565b6005546001600160a01b0316331480159061066457506003546001600160a01b03163314155b1561068257604051637783a63d60e01b815260040160405180910390fd5b60009182526001602052604090912080546001600160a01b0319166001600160a01b03909216919091179055565b6005546001600160a01b031633148015906106d657506003546001600160a01b03163314155b156106f457604051637783a63d60e01b815260040160405180910390fd5b60009182526020829052604090912055565b6005546001600160a01b0316331480159061072c57506003546001600160a01b03163314155b1561074a57604051637783a63d60e01b815260040160405180910390fd5b600090815260208190526040812055565b6005546001600160a01b0316331480159061078157506003546001600160a01b03163314155b1561079f57604051637783a63d60e01b815260040160405180910390fd5b600082815260208190526040812080548392906106359084906108c6565b6000602082840312156107cf57600080fd5b5035919050565b80356001600160a01b03811681146107ed57600080fd5b919050565b60006020828403121561080457600080fd5b61080d826107d6565b9392505050565b6000806040838503121561082757600080fd5b823591506020830135801515811461083e57600080fd5b809150509250929050565b6000806040838503121561085c57600080fd5b50508035926020909101359150565b6000806040838503121561087e57600080fd5b8235915061088e602084016107d6565b90509250929050565b634e487b7160e01b600052601160045260246000fd5b808201808211156108c0576108c0610897565b92915050565b818103818111156108c0576108c061089756fea2646970667358221220b342ecc57b5fc83443b71a7272093f008402b38965bd2475d67796e53118a93164736f6c63430008140033",
        "nonce": "0x85",
        "chainId": "0x4268",
        "accessList": null,
        "type": null
      },
      "additionalContracts": [],
      "isFixedGasLimit": false
    },
    {
      "hash": "0x0446b5cd885fdff6933e4eb68eb7bb37bb1ac11292054aab49b3cfa18a8571df",
      "transactionType": "CALL",
      "contractName": "APEthStorage",
      "contractAddress": "0x106e18e0fd8732ed67520e104534a08c77a2213f",
      "function": "setAddress(bytes32,address)",
      "arguments": [
        "0x2e23b149a49dae0c4842f0dcb38d20828e54c912e4f493eb3de5c279296049fa",
        "0x38A4794cCEd47d3baf7370CcC43B560D3a1beEFA"
      ],
      "transaction": {
        "from": "0x51336769321de54925e2da6881d7bdcb02258d5e",
        "to": "0x106e18e0fd8732ed67520e104534a08c77a2213f",
        "gas": "0x1078f",
        "value": "0x0",
        "input": "0xca446dd92e23b149a49dae0c4842f0dcb38d20828e54c912e4f493eb3de5c279296049fa00000000000000000000000038a4794cced47d3baf7370ccc43b560d3a1beefa",
        "nonce": "0x86",
        "chainId": "0x4268",
        "accessList": null,
        "type": null
      },
      "additionalContracts": [],
      "isFixedGasLimit": false
    },
    {
      "hash": "0xbeebace66f8876c63a4b8cf829c951e7e8fa5c49dfcfd908a6671f9bfb4e1db3",
      "transactionType": "CALL",
      "contractName": "APEthStorage",
      "contractAddress": "0x106e18e0fd8732ed67520e104534a08c77a2213f",
      "function": "setAddress(bytes32,address)",
      "arguments": [
        "0x713323e49e314fb617d525e61a15c7462a766fc17414faeb7be702dbcf3e7114",
        "0x30770d7E3e71112d7A6b7259542D1f680a70e315"
      ],
      "transaction": {
        "from": "0x51336769321de54925e2da6881d7bdcb02258d5e",
        "to": "0x106e18e0fd8732ed67520e104534a08c77a2213f",
        "gas": "0x1078f",
        "value": "0x0",
        "input": "0xca446dd9713323e49e314fb617d525e61a15c7462a766fc17414faeb7be702dbcf3e711400000000000000000000000030770d7e3e71112d7a6b7259542d1f680a70e315",
        "nonce": "0x87",
        "chainId": "0x4268",
        "accessList": null,
        "type": null
      },
      "additionalContracts": [],
      "isFixedGasLimit": false
    },
    {
      "hash": "0xaa0d7d41a0ffd07507ddc22313df6b84fd58c5061538fc8daff26274b59acfa9",
      "transactionType": "CALL",
      "contractName": "APEthStorage",
      "contractAddress": "0x106e18e0fd8732ed67520e104534a08c77a2213f",
      "function": "setAddress(bytes32,address)",
      "arguments": [
        "0x6c3e217e884bcc44f586d48cb25059dc31d190c2413fa438cbd3a799e994d55f",
        "0x51336769321dE54925E2da6881D7BDCb02258D5e"
      ],
      "transaction": {
        "from": "0x51336769321de54925e2da6881d7bdcb02258d5e",
        "to": "0x106e18e0fd8732ed67520e104534a08c77a2213f",
        "gas": "0x1078f",
        "value": "0x0",
        "input": "0xca446dd96c3e217e884bcc44f586d48cb25059dc31d190c2413fa438cbd3a799e994d55f00000000000000000000000051336769321de54925e2da6881d7bdcb02258d5e",
        "nonce": "0x88",
        "chainId": "0x4268",
        "accessList": null,
        "type": null
      },
      "additionalContracts": [],
      "isFixedGasLimit": false
    },
    {
      "hash": "0x727f885a8d77c3b312f67bb874e11c79d83a265ecabab85751368765afe8b36d",
      "transactionType": "CALL",
      "contractName": "APEthStorage",
      "contractAddress": "0x106e18e0fd8732ed67520e104534a08c77a2213f",
      "function": "setUint(bytes32,uint256)",
      "arguments": [
        "0x8c6a7365107ae8db270a3015f78a9174f46d78e7d222cb070f5cde91b225472e",
        "500"
      ],
      "transaction": {
        "from": "0x51336769321de54925e2da6881d7bdcb02258d5e",
        "to": "0x106e18e0fd8732ed67520e104534a08c77a2213f",
        "gas": "0x105bb",
        "value": "0x0",
        "input": "0xe2a4853a8c6a7365107ae8db270a3015f78a9174f46d78e7d222cb070f5cde91b225472e00000000000000000000000000000000000000000000000000000000000001f4",
        "nonce": "0x89",
        "chainId": "0x4268",
        "accessList": null,
        "type": null
      },
      "additionalContracts": [],
      "isFixedGasLimit": false
    }
  ],
  "receipts": [
    {
      "status": "0x1",
      "cumulativeGasUsed": "0x2d948f",
      "logs": [],
      "logsBloom": "0x00000000000000000000000000000000000000000000000000000000000000000000000000000000000000000000000000000000000000000000000000000000000000000000000000000000000000000000000000000000000000000000000000000000000000000000000000000000000000000000000000000000000000000000000000000000000000000000000000000000000000000000000000000000000000000000000000000000000000000000000000000000000000000000000000000000000000000000000000000000000000000000000000000000000000000000000000000000000000000000000000000000000000000000000000000000",
      "type": "0x2",
      "transactionHash": "0xca7d81ac5e3a46e0c001f6c77ae19ea8e9f565062a7204d7b50bc57d81dd757e",
      "transactionIndex": "0x20",
      "blockHash": "0x7de2602ab182be20ba0a066e1128dcb9975643e42455ae40cc937262283d77d0",
      "blockNumber": "0x148a30",
      "gasUsed": "0x8d22b",
      "effectiveGasPrice": "0x588f4d66",
      "from": "0x51336769321de54925e2da6881d7bdcb02258d5e",
      "to": "0x4e59b44847b379578588920ca78fbf26c0b4956c",
      "contractAddress": "0x106e18e0fd8732ed67520e104534a08c77a2213f"
    },
    {
      "status": "0x1",
      "cumulativeGasUsed": "0x2e535f",
      "logs": [],
      "logsBloom": "0x00000000000000000000000000000000000000000000000000000000000000000000000000000000000000000000000000000000000000000000000000000000000000000000000000000000000000000000000000000000000000000000000000000000000000000000000000000000000000000000000000000000000000000000000000000000000000000000000000000000000000000000000000000000000000000000000000000000000000000000000000000000000000000000000000000000000000000000000000000000000000000000000000000000000000000000000000000000000000000000000000000000000000000000000000000000",
      "type": "0x2",
      "transactionHash": "0x0446b5cd885fdff6933e4eb68eb7bb37bb1ac11292054aab49b3cfa18a8571df",
      "transactionIndex": "0x21",
      "blockHash": "0x7de2602ab182be20ba0a066e1128dcb9975643e42455ae40cc937262283d77d0",
      "blockNumber": "0x148a30",
      "gasUsed": "0xbed0",
      "effectiveGasPrice": "0x588f4d66",
      "from": "0x51336769321de54925e2da6881d7bdcb02258d5e",
      "to": "0x106e18e0fd8732ed67520e104534a08c77a2213f",
      "contractAddress": null
    },
    {
      "status": "0x1",
      "cumulativeGasUsed": "0x2f122f",
      "logs": [],
      "logsBloom": "0x00000000000000000000000000000000000000000000000000000000000000000000000000000000000000000000000000000000000000000000000000000000000000000000000000000000000000000000000000000000000000000000000000000000000000000000000000000000000000000000000000000000000000000000000000000000000000000000000000000000000000000000000000000000000000000000000000000000000000000000000000000000000000000000000000000000000000000000000000000000000000000000000000000000000000000000000000000000000000000000000000000000000000000000000000000000",
      "type": "0x2",
      "transactionHash": "0xbeebace66f8876c63a4b8cf829c951e7e8fa5c49dfcfd908a6671f9bfb4e1db3",
      "transactionIndex": "0x22",
      "blockHash": "0x7de2602ab182be20ba0a066e1128dcb9975643e42455ae40cc937262283d77d0",
      "blockNumber": "0x148a30",
      "gasUsed": "0xbed0",
      "effectiveGasPrice": "0x588f4d66",
      "from": "0x51336769321de54925e2da6881d7bdcb02258d5e",
      "to": "0x106e18e0fd8732ed67520e104534a08c77a2213f",
      "contractAddress": null
    },
    {
      "status": "0x1",
      "cumulativeGasUsed": "0x2fd0ff",
      "logs": [],
      "logsBloom": "0x00000000000000000000000000000000000000000000000000000000000000000000000000000000000000000000000000000000000000000000000000000000000000000000000000000000000000000000000000000000000000000000000000000000000000000000000000000000000000000000000000000000000000000000000000000000000000000000000000000000000000000000000000000000000000000000000000000000000000000000000000000000000000000000000000000000000000000000000000000000000000000000000000000000000000000000000000000000000000000000000000000000000000000000000000000000",
      "type": "0x2",
      "transactionHash": "0xaa0d7d41a0ffd07507ddc22313df6b84fd58c5061538fc8daff26274b59acfa9",
      "transactionIndex": "0x23",
      "blockHash": "0x7de2602ab182be20ba0a066e1128dcb9975643e42455ae40cc937262283d77d0",
      "blockNumber": "0x148a30",
      "gasUsed": "0xbed0",
      "effectiveGasPrice": "0x588f4d66",
      "from": "0x51336769321de54925e2da6881d7bdcb02258d5e",
      "to": "0x106e18e0fd8732ed67520e104534a08c77a2213f",
      "contractAddress": null
    },
    {
      "status": "0x1",
      "cumulativeGasUsed": "0x308e7d",
      "logs": [],
      "logsBloom": "0x00000000000000000000000000000000000000000000000000000000000000000000000000000000000000000000000000000000000000000000000000000000000000000000000000000000000000000000000000000000000000000000000000000000000000000000000000000000000000000000000000000000000000000000000000000000000000000000000000000000000000000000000000000000000000000000000000000000000000000000000000000000000000000000000000000000000000000000000000000000000000000000000000000000000000000000000000000000000000000000000000000000000000000000000000000000",
      "type": "0x2",
      "transactionHash": "0x727f885a8d77c3b312f67bb874e11c79d83a265ecabab85751368765afe8b36d",
      "transactionIndex": "0x24",
      "blockHash": "0x7de2602ab182be20ba0a066e1128dcb9975643e42455ae40cc937262283d77d0",
      "blockNumber": "0x148a30",
      "gasUsed": "0xbd7e",
      "effectiveGasPrice": "0x588f4d66",
      "from": "0x51336769321de54925e2da6881d7bdcb02258d5e",
      "to": "0x106e18e0fd8732ed67520e104534a08c77a2213f",
      "contractAddress": null
    }
  ],
  "libraries": [],
  "pending": [],
  "returns": {
    "0": {
      "internal_type": "contract APEthStorage",
      "value": "0x106E18e0FD8732Ed67520e104534A08C77A2213f"
    }
  },
  "timestamp": 1713112205,
  "chain": 17000,
  "commit": "aba9df9"
}