{
  "transactions": [
    {
      "hash": "0xce3bd85f1876ce087e7e9b2605f8ce55c608364d02fdaec736ecc2a77ee59383",
      "transactionType": "CREATE2",
      "contractName": "APEthStorage",
      "contractAddress": "0xe0E553473d2E82Bbc8daF38241C9e399dd218441",
      "function": null,
      "arguments": null,
      "transaction": {
        "type": "0x02",
        "from": "0x51336769321de54925e2da6881d7bdcb02258d5e",
        "to": "0x4e59b44847b379578588920ca78fbf26c0b4956c",
        "gas": "0xc435b",
        "value": "0x0",
        "data": "0x0000000000000000000000000000000000000000000000000000000000000669608060405234801561001057600080fd5b50600380546001600160a01b03191632179055610921806100326000396000f3fe608060405234801561001057600080fd5b506004361061010b5760003560e01c80638a0dac4a116100a2578063bd02d0f511610071578063bd02d0f51461022f578063ca446dd91461025d578063e2a4853a14610270578063e2b202bf14610283578063ebb9d8c91461029657600080fd5b80638a0dac4a146101e5578063a75b87d2146101f8578063abfdcced14610209578063adb353dc1461021c57600080fd5b80634a4f54c6116100de5780634a4f54c6146101865780634bd6f7ca1461019757806367a6a917146101aa5780637ae1cfca146101b257600080fd5b80630e14a376146101105780631e0ea61e1461012557806321f8a7211461012d5780632c62ff2d14610173575b600080fd5b61012361011e3660046107cf565b6102a9565b005b610123610312565b61015661013b3660046107cf565b6000908152600160205260409020546001600160a01b031690565b6040516001600160a01b0390911681526020015b60405180910390f35b6101236101813660046107cf565b6103aa565b6005546001600160a01b0316610156565b6101236101a5366004610804565b610408565b61012361047f565b6101d56101c03660046107cf565b60009081526002602052604090205460ff1690565b604051901515815260200161016a565b6101236101f3366004610804565b610528565b6003546001600160a01b0316610156565b610123610217366004610826565b610575565b61012361022a36600461085b565b6105db565b61024f61023d3660046107cf565b60009081526020819052604090205490565b60405190815260200161016a565b61012361026b36600461087d565b610648565b61012361027e36600461085b565b6106bc565b6101236102913660046107cf565b610714565b6101236102a436600461085b565b61076b565b6005546001600160a01b031633148015906102cf57506003546001600160a01b03163314155b156102f4576040516346c417a160e11b81523360048201526024015b60405180910390fd5b600090815260016020526040902080546001600160a01b0319169055565b6004546001600160a01b0316331461033d5760405163e3c402fb60e01b815260040160405180910390fd5b60038054600480546001600160a01b038082166001600160a01b0319808616821790965594909116909155604080519190921680825260208201939093527fa14fc14d8620a708a896fd11392a235647d99385500a295f0d7da2a258b2e96791015b60405180910390a150565b6005546001600160a01b031633148015906103d057506003546001600160a01b03163314155b156103f0576040516346c417a160e11b81523360048201526024016102eb565b6000908152600260205260409020805460ff19169055565b6003546001600160a01b031633146104335760405163442d052360e01b815260040160405180910390fd5b6005546001600160a01b03161561045d576040516309d64e4560e21b815260040160405180910390fd5b600580546001600160a01b0319166001600160a01b0392909216919091179055565b6003546001600160a01b031633146104aa5760405163442d052360e01b815260040160405180910390fd5b6004546001600160a01b0316156104d4576040516356a888fb60e11b815260040160405180910390fd5b600380546001600160a01b03198116909155604080516001600160a01b0390921680835260006020840152917fa14fc14d8620a708a896fd11392a235647d99385500a295f0d7da2a258b2e967910161039f565b6003546001600160a01b031633146105535760405163442d052360e01b815260040160405180910390fd5b600480546001600160a01b0319166001600160a01b0392909216919091179055565b6005546001600160a01b0316331480159061059b57506003546001600160a01b03163314155b156105bb576040516346c417a160e11b81523360048201526024016102eb565b600091825260026020526040909120805460ff1916911515919091179055565b6005546001600160a01b0316331480159061060157506003546001600160a01b03163314155b15610621576040516346c417a160e11b81523360048201526024016102eb565b6000828152602081905260408120805483929061063f9084906108bf565b90915550505050565b6005546001600160a01b0316331480159061066e57506003546001600160a01b03163314155b1561068e576040516346c417a160e11b81523360048201526024016102eb565b60009182526001602052604090912080546001600160a01b0319166001600160a01b03909216919091179055565b6005546001600160a01b031633148015906106e257506003546001600160a01b03163314155b15610702576040516346c417a160e11b81523360048201526024016102eb565b60009182526020829052604090912055565b6005546001600160a01b0316331480159061073a57506003546001600160a01b03163314155b1561075a576040516346c417a160e11b81523360048201526024016102eb565b600090815260208190526040812055565b6005546001600160a01b0316331480159061079157506003546001600160a01b03163314155b156107b1576040516346c417a160e11b81523360048201526024016102eb565b6000828152602081905260408120805483929061063f9084906108d8565b6000602082840312156107e157600080fd5b5035919050565b80356001600160a01b03811681146107ff57600080fd5b919050565b60006020828403121561081657600080fd5b61081f826107e8565b9392505050565b6000806040838503121561083957600080fd5b823591506020830135801515811461085057600080fd5b809150509250929050565b6000806040838503121561086e57600080fd5b50508035926020909101359150565b6000806040838503121561089057600080fd5b823591506108a0602084016107e8565b90509250929050565b634e487b7160e01b600052601160045260246000fd5b808201808211156108d2576108d26108a9565b92915050565b818103818111156108d2576108d26108a956fea2646970667358221220f91611a9d62b0e106b5f8a7d962e679ad9cd98a508041bdec1a18d4f3845eae164736f6c63430008140033",
        "nonce": "0x41",
        "accessList": []
      },
      "additionalContracts": [],
      "isFixedGasLimit": false
    },
    {
      "hash": "0xb25ebcfe039d128d5ddda3298b5aa7f9e1815566c76467c41a1551c2538edd8f",
      "transactionType": "CALL",
      "contractName": "APEthStorage",
      "contractAddress": "0xe0E553473d2E82Bbc8daF38241C9e399dd218441",
      "function": "setAddress(bytes32,address)",
      "arguments": [
        "0x2e23b149a49dae0c4842f0dcb38d20828e54c912e4f493eb3de5c279296049fa",
        "0x38A4794cCEd47d3baf7370CcC43B560D3a1beEFA"
      ],
      "transaction": {
        "type": "0x02",
        "from": "0x51336769321de54925e2da6881d7bdcb02258d5e",
        "to": "0xe0e553473d2e82bbc8daf38241c9e399dd218441",
        "gas": "0x1078f",
        "value": "0x0",
        "data": "0xca446dd92e23b149a49dae0c4842f0dcb38d20828e54c912e4f493eb3de5c279296049fa00000000000000000000000038a4794cced47d3baf7370ccc43b560d3a1beefa",
        "nonce": "0x42",
        "accessList": []
      },
      "additionalContracts": [],
      "isFixedGasLimit": false
    },
    {
      "hash": "0x3026c9eb5d44d6e815bda262f6f6e23a6e58de33f7adfe6baaa02b4d312f728e",
      "transactionType": "CALL",
      "contractName": "APEthStorage",
      "contractAddress": "0xe0E553473d2E82Bbc8daF38241C9e399dd218441",
      "function": "setAddress(bytes32,address)",
      "arguments": [
        "0x713323e49e314fb617d525e61a15c7462a766fc17414faeb7be702dbcf3e7114",
        "0x30770d7E3e71112d7A6b7259542D1f680a70e315"
      ],
      "transaction": {
        "type": "0x02",
        "from": "0x51336769321de54925e2da6881d7bdcb02258d5e",
        "to": "0xe0e553473d2e82bbc8daf38241c9e399dd218441",
        "gas": "0x1078f",
        "value": "0x0",
        "data": "0xca446dd9713323e49e314fb617d525e61a15c7462a766fc17414faeb7be702dbcf3e711400000000000000000000000030770d7e3e71112d7a6b7259542d1f680a70e315",
        "nonce": "0x43",
        "accessList": []
      },
      "additionalContracts": [],
      "isFixedGasLimit": false
    },
    {
      "hash": "0x541ca893cd8f8616f059aa6476162cf11c41e485d1006d7bfd7ec16175c52840",
      "transactionType": "CALL",
      "contractName": "APEthStorage",
      "contractAddress": "0xe0E553473d2E82Bbc8daF38241C9e399dd218441",
      "function": "setAddress(bytes32,address)",
      "arguments": [
        "0x6c3e217e884bcc44f586d48cb25059dc31d190c2413fa438cbd3a799e994d55f",
        "0x51336769321dE54925E2da6881D7BDCb02258D5e"
      ],
      "transaction": {
        "type": "0x02",
        "from": "0x51336769321de54925e2da6881d7bdcb02258d5e",
        "to": "0xe0e553473d2e82bbc8daf38241c9e399dd218441",
        "gas": "0x1078f",
        "value": "0x0",
        "data": "0xca446dd96c3e217e884bcc44f586d48cb25059dc31d190c2413fa438cbd3a799e994d55f00000000000000000000000051336769321de54925e2da6881d7bdcb02258d5e",
        "nonce": "0x44",
        "accessList": []
      },
      "additionalContracts": [],
      "isFixedGasLimit": false
    },
    {
      "hash": "0x48e83dab6c40ee6297d0cf2046b43e48373b11623fffd615050be28c070f599e",
      "transactionType": "CALL",
      "contractName": "APEthStorage",
      "contractAddress": "0xe0E553473d2E82Bbc8daF38241C9e399dd218441",
      "function": "setUint(bytes32,uint256)",
      "arguments": [
        "0x8c6a7365107ae8db270a3015f78a9174f46d78e7d222cb070f5cde91b225472e",
        "500"
      ],
      "transaction": {
        "type": "0x02",
        "from": "0x51336769321de54925e2da6881d7bdcb02258d5e",
        "to": "0xe0e553473d2e82bbc8daf38241c9e399dd218441",
        "gas": "0x105bb",
        "value": "0x0",
        "data": "0xe2a4853a8c6a7365107ae8db270a3015f78a9174f46d78e7d222cb070f5cde91b225472e00000000000000000000000000000000000000000000000000000000000001f4",
        "nonce": "0x45",
        "accessList": []
      },
      "additionalContracts": [],
      "isFixedGasLimit": false
    },
    {
      "hash": "0x82fedf50b223c323fd543ea4c36405833798be00e383327d3d324ef6c687ad7d",
      "transactionType": "CALL",
      "contractName": "APEthStorage",
      "contractAddress": "0xe0E553473d2E82Bbc8daF38241C9e399dd218441",
      "function": "setAPEth(address)",
      "arguments": [
        "0x3bd965cE444A2d8069844Df8fe8424bc9e3D2357"
      ],
      "transaction": {
        "type": "0x02",
        "from": "0x51336769321de54925e2da6881d7bdcb02258d5e",
        "to": "0xe0e553473d2e82bbc8daf38241c9e399dd218441",
        "gas": "0x10815",
        "value": "0x0",
        "data": "0x4bd6f7ca0000000000000000000000003bd965ce444a2d8069844df8fe8424bc9e3d2357",
        "nonce": "0x46",
        "accessList": []
      },
      "additionalContracts": [],
      "isFixedGasLimit": false
    }
  ],
  "receipts": [
    {
      "transactionHash": "0xce3bd85f1876ce087e7e9b2605f8ce55c608364d02fdaec736ecc2a77ee59383",
      "transactionIndex": "0x6",
      "blockHash": "0xdf15ef0d5fdf009f41450ea1eb790f051c2f0deedff8543d7dd47e8722f33810",
      "blockNumber": "0x13d95a",
      "from": "0x51336769321dE54925E2da6881D7BDCb02258D5e",
      "to": "0x4e59b44847b379578588920cA78FbF26c0B4956C",
      "cumulativeGasUsed": "0xacd9d",
      "gasUsed": "0x8e16d",
      "contractAddress": "0xe0E553473d2E82Bbc8daF38241C9e399dd218441",
      "logs": [],
      "status": "0x1",
      "logsBloom": "0x00000000000000000000000000000000000000000000000000000000000000000000000000000000000000000000000000000000000000000000000000000000000000000000000000000000000000000000000000000000000000000000000000000000000000000000000000000000000000000000000000000000000000000000000000000000000000000000000000000000000000000000000000000000000000000000000000000000000000000000000000000000000000000000000000000000000000000000000000000000000000000000000000000000000000000000000000000000000000000000000000000000000000000000000000000000",
      "type": "0x2",
      "effectiveGasPrice": "0xb2d109fb"
    },
    {
      "transactionHash": "0xb25ebcfe039d128d5ddda3298b5aa7f9e1815566c76467c41a1551c2538edd8f",
      "transactionIndex": "0x7",
      "blockHash": "0xdf15ef0d5fdf009f41450ea1eb790f051c2f0deedff8543d7dd47e8722f33810",
      "blockNumber": "0x13d95a",
      "from": "0x51336769321dE54925E2da6881D7BDCb02258D5e",
      "to": "0xe0E553473d2E82Bbc8daF38241C9e399dd218441",
      "cumulativeGasUsed": "0xb8c6d",
      "gasUsed": "0xbed0",
      "contractAddress": null,
      "logs": [],
      "status": "0x1",
      "logsBloom": "0x00000000000000000000000000000000000000000000000000000000000000000000000000000000000000000000000000000000000000000000000000000000000000000000000000000000000000000000000000000000000000000000000000000000000000000000000000000000000000000000000000000000000000000000000000000000000000000000000000000000000000000000000000000000000000000000000000000000000000000000000000000000000000000000000000000000000000000000000000000000000000000000000000000000000000000000000000000000000000000000000000000000000000000000000000000000",
      "type": "0x2",
      "effectiveGasPrice": "0xb2d109fb"
    },
    {
      "transactionHash": "0x3026c9eb5d44d6e815bda262f6f6e23a6e58de33f7adfe6baaa02b4d312f728e",
      "transactionIndex": "0x8",
      "blockHash": "0xdf15ef0d5fdf009f41450ea1eb790f051c2f0deedff8543d7dd47e8722f33810",
      "blockNumber": "0x13d95a",
      "from": "0x51336769321dE54925E2da6881D7BDCb02258D5e",
      "to": "0xe0E553473d2E82Bbc8daF38241C9e399dd218441",
      "cumulativeGasUsed": "0xc4b3d",
      "gasUsed": "0xbed0",
      "contractAddress": null,
      "logs": [],
      "status": "0x1",
      "logsBloom": "0x00000000000000000000000000000000000000000000000000000000000000000000000000000000000000000000000000000000000000000000000000000000000000000000000000000000000000000000000000000000000000000000000000000000000000000000000000000000000000000000000000000000000000000000000000000000000000000000000000000000000000000000000000000000000000000000000000000000000000000000000000000000000000000000000000000000000000000000000000000000000000000000000000000000000000000000000000000000000000000000000000000000000000000000000000000000",
      "type": "0x2",
      "effectiveGasPrice": "0xb2d109fb"
    },
    {
      "transactionHash": "0x541ca893cd8f8616f059aa6476162cf11c41e485d1006d7bfd7ec16175c52840",
      "transactionIndex": "0x9",
      "blockHash": "0xdf15ef0d5fdf009f41450ea1eb790f051c2f0deedff8543d7dd47e8722f33810",
      "blockNumber": "0x13d95a",
      "from": "0x51336769321dE54925E2da6881D7BDCb02258D5e",
      "to": "0xe0E553473d2E82Bbc8daF38241C9e399dd218441",
      "cumulativeGasUsed": "0xd0a0d",
      "gasUsed": "0xbed0",
      "contractAddress": null,
      "logs": [],
      "status": "0x1",
      "logsBloom": "0x00000000000000000000000000000000000000000000000000000000000000000000000000000000000000000000000000000000000000000000000000000000000000000000000000000000000000000000000000000000000000000000000000000000000000000000000000000000000000000000000000000000000000000000000000000000000000000000000000000000000000000000000000000000000000000000000000000000000000000000000000000000000000000000000000000000000000000000000000000000000000000000000000000000000000000000000000000000000000000000000000000000000000000000000000000000",
      "type": "0x2",
      "effectiveGasPrice": "0xb2d109fb"
    },
    {
      "transactionHash": "0x48e83dab6c40ee6297d0cf2046b43e48373b11623fffd615050be28c070f599e",
      "transactionIndex": "0xa",
      "blockHash": "0xdf15ef0d5fdf009f41450ea1eb790f051c2f0deedff8543d7dd47e8722f33810",
      "blockNumber": "0x13d95a",
      "from": "0x51336769321dE54925E2da6881D7BDCb02258D5e",
      "to": "0xe0E553473d2E82Bbc8daF38241C9e399dd218441",
      "cumulativeGasUsed": "0xdc78b",
      "gasUsed": "0xbd7e",
      "contractAddress": null,
      "logs": [],
      "status": "0x1",
      "logsBloom": "0x00000000000000000000000000000000000000000000000000000000000000000000000000000000000000000000000000000000000000000000000000000000000000000000000000000000000000000000000000000000000000000000000000000000000000000000000000000000000000000000000000000000000000000000000000000000000000000000000000000000000000000000000000000000000000000000000000000000000000000000000000000000000000000000000000000000000000000000000000000000000000000000000000000000000000000000000000000000000000000000000000000000000000000000000000000000",
      "type": "0x2",
      "effectiveGasPrice": "0xb2d109fb"
    },
    {
      "transactionHash": "0x82fedf50b223c323fd543ea4c36405833798be00e383327d3d324ef6c687ad7d",
      "transactionIndex": "0xb",
      "blockHash": "0xdf15ef0d5fdf009f41450ea1eb790f051c2f0deedff8543d7dd47e8722f33810",
      "blockNumber": "0x13d95a",
      "from": "0x51336769321dE54925E2da6881D7BDCb02258D5e",
      "to": "0xe0E553473d2E82Bbc8daF38241C9e399dd218441",
      "cumulativeGasUsed": "0xe7c1d",
      "gasUsed": "0xb492",
      "contractAddress": null,
      "logs": [],
      "status": "0x1",
      "logsBloom": "0x00000000000000000000000000000000000000000000000000000000000000000000000000000000000000000000000000000000000000000000000000000000000000000000000000000000000000000000000000000000000000000000000000000000000000000000000000000000000000000000000000000000000000000000000000000000000000000000000000000000000000000000000000000000000000000000000000000000000000000000000000000000000000000000000000000000000000000000000000000000000000000000000000000000000000000000000000000000000000000000000000000000000000000000000000000000",
      "type": "0x2",
      "effectiveGasPrice": "0xb2d109fb"
    }
  ],
  "libraries": [],
  "pending": [],
  "returns": {
    "1": {
      "internal_type": "contract APETH",
      "value": "0x0000000000000000000000000000000000000000"
    },
    "2": {
      "internal_type": "contract APETH",
      "value": "0x0000000000000000000000000000000000000000"
    },
    "0": {
      "internal_type": "contract APEthStorage",
      "value": "0x0000000000000000000000000000000000000000"
    }
  },
  "timestamp": 1712510262,
  "chain": 17000,
  "commit": "6934e7e"
}