{
  "transactions": [
    {
      "hash": "0x3be47b2f76537389182c037d65b94e242e5fee3e4c9679c3508797ca545b7c44",
      "transactionType": "CALL",
      "contractName": null,
      "contractAddress": "0x5b366ad3b9e2f69213f795053a9fea6d6ee134bb",
      "function": "setAPEth(address)",
      "arguments": [
        "0x4CD6111b650EaEaE376853D44cb5DAA3B7e3Da82"
      ],
      "transaction": {
        "from": "0x51336769321de54925e2da6881d7bdcb02258d5e",
        "to": "0x5b366ad3b9e2f69213f795053a9fea6d6ee134bb",
        "gas": "0x10815",
        "value": "0x0",
        "input": "0x4bd6f7ca0000000000000000000000004cd6111b650eaeae376853d44cb5daa3b7e3da82",
        "nonce": "0x16a",
        "chainId": "0x4268"
      },
      "additionalContracts": [],
      "isFixedGasLimit": false
    },
    {
      "hash": "0x2abbadf6cab2dabcdb53f2a64105cff17ad29d1eea8207c32d0e6f5effc40601",
      "transactionType": "CREATE2",
      "contractName": "ERC1967Proxy",
      "contractAddress": "0x4cd6111b650eaeae376853d44cb5daa3b7e3da82",
      "function": null,
      "arguments": [
        "0x936015C6ea382563d5D950cD09268231a7859Bd3",
        "0x485cc95500000000000000000000000051336769321de54925e2da6881d7bdcb02258d5e0000000000000000000000005b366ad3b9e2f69213f795053a9fea6d6ee134bb"
      ],
      "transaction": {
        "from": "0x51336769321de54925e2da6881d7bdcb02258d5e",
        "to": "0x4e59b44847b379578588920ca78fbf26c0b4956c",
        "gas": "0xf4e8e",
        "value": "0x0",
        "input": "0xb052c58d7d1de5bbf0e0276e8b36368c24260a538deccc6d6e0f1bd5c8274ad3608060405260405161040a38038061040a83398101604081905261002291610268565b61002c8282610033565b5050610352565b61003c82610092565b6040516001600160a01b038316907fbc7cd75a20ee27fd9adebab32041f755214dbc6bffa90cc0225b39da2e5c2d3b90600090a280511561008657610081828261010e565b505050565b61008e610185565b5050565b806001600160a01b03163b6000036100cd57604051634c9c8ce360e01b81526001600160a01b03821660048201526024015b60405180910390fd5b7f360894a13ba1a3210667c828492db98dca3e2076cc3735a920a3ca505d382bbc80546001600160a01b0319166001600160a01b0392909216919091179055565b6060600080846001600160a01b03168460405161012b9190610336565b600060405180830381855af49150503d8060008114610166576040519150601f19603f3d011682016040523d82523d6000602084013e61016b565b606091505b50909250905061017c8583836101a6565b95945050505050565b34156101a45760405163b398979f60e01b815260040160405180910390fd5b565b6060826101bb576101b682610205565b6101fe565b81511580156101d257506001600160a01b0384163b155b156101fb57604051639996b31560e01b81526001600160a01b03851660048201526024016100c4565b50805b9392505050565b8051156102155780518082602001fd5b604051630a12f52160e11b815260040160405180910390fd5b634e487b7160e01b600052604160045260246000fd5b60005b8381101561025f578181015183820152602001610247565b50506000910152565b6000806040838503121561027b57600080fd5b82516001600160a01b038116811461029257600080fd5b60208401519092506001600160401b03808211156102af57600080fd5b818501915085601f8301126102c357600080fd5b8151818111156102d5576102d561022e565b604051601f8201601f19908116603f011681019083821181831017156102fd576102fd61022e565b8160405282815288602084870101111561031657600080fd5b610327836020830160208801610244565b80955050505050509250929050565b60008251610348818460208701610244565b9190910192915050565b60aa806103606000396000f3fe6080604052600a600c565b005b60186014601a565b6051565b565b6000604c7f360894a13ba1a3210667c828492db98dca3e2076cc3735a920a3ca505d382bbc546001600160a01b031690565b905090565b3660008037600080366000845af43d6000803e808015606f573d6000f35b3d6000fdfea264697066735822122055d7701bcc621aea7c61bfc54c5fcb9456eb5ec0e10858dd31fe77785ecfb60464736f6c63430008140033000000000000000000000000936015c6ea382563d5d950cd09268231a7859bd300000000000000000000000000000000000000000000000000000000000000400000000000000000000000000000000000000000000000000000000000000044485cc95500000000000000000000000051336769321de54925e2da6881d7bdcb02258d5e0000000000000000000000005b366ad3b9e2f69213f795053a9fea6d6ee134bb00000000000000000000000000000000000000000000000000000000",
        "nonce": "0x16b",
        "chainId": "0x4268"
      },
      "additionalContracts": [
        {
          "transactionType": "CREATE2",
          "address": "0xeb42b730d87b7fca8cbc3b4acc5e82e6e45b65c0",
          "initCode": "0x608060405260405161090e38038061090e83398101604081905261002291610460565b61002e82826000610035565b505061058a565b61003e83610100565b6040516001600160a01b038416907f1cf3b03a6cf19fa2baba4df148e9dcabedea7f8a5c07840e207e5c089be95d3e90600090a260008251118061007f5750805b156100fb576100f9836001600160a01b0316635c60da1b6040518163ffffffff1660e01b8152600401602060405180830381865afa1580156100c5573d6000803e3d6000fd5b505050506040513d601f19601f820116820180604052508101906100e99190610520565b836102a360201b6100291760201c565b505b505050565b610113816102cf60201b6100551760201c565b6101725760405162461bcd60e51b815260206004820152602560248201527f455243313936373a206e657720626561636f6e206973206e6f74206120636f6e6044820152641d1c9858dd60da1b60648201526084015b60405180910390fd5b6101e6816001600160a01b0316635c60da1b6040518163ffffffff1660e01b8152600401602060405180830381865afa1580156101b3573d6000803e3d6000fd5b505050506040513d601f19601f820116820180604052508101906101d79190610520565b6102cf60201b6100551760201c565b61024b5760405162461bcd60e51b815260206004820152603060248201527f455243313936373a20626561636f6e20696d706c656d656e746174696f6e206960448201526f1cc81b9bdd08184818dbdb9d1c9858dd60821b6064820152608401610169565b806102827fa3f0ad74e5423aebfd80d3ef4346578335a9a72aeaee59ff6cb3582b35133d5060001b6102de60201b6100641760201c565b80546001600160a01b0319166001600160a01b039290921691909117905550565b60606102c883836040518060600160405280602781526020016108e7602791396102e1565b9392505050565b6001600160a01b03163b151590565b90565b6060600080856001600160a01b0316856040516102fe919061053b565b600060405180830381855af49150503d8060008114610339576040519150601f19603f3d011682016040523d82523d6000602084013e61033e565b606091505b5090925090506103508683838761035a565b9695505050505050565b606083156103c65782516103bf576001600160a01b0385163b6103bf5760405162461bcd60e51b815260206004820152601d60248201527f416464726573733a2063616c6c20746f206e6f6e2d636f6e74726163740000006044820152606401610169565b50816103d0565b6103d083836103d8565b949350505050565b8151156103e85781518083602001fd5b8060405162461bcd60e51b81526004016101699190610557565b80516001600160a01b038116811461041957600080fd5b919050565b634e487b7160e01b600052604160045260246000fd5b60005b8381101561044f578181015183820152602001610437565b838111156100f95750506000910152565b6000806040838503121561047357600080fd5b61047c83610402565b60208401519092506001600160401b038082111561049957600080fd5b818501915085601f8301126104ad57600080fd5b8151818111156104bf576104bf61041e565b604051601f8201601f19908116603f011681019083821181831017156104e7576104e761041e565b8160405282815288602084870101111561050057600080fd5b610511836020830160208801610434565b80955050505050509250929050565b60006020828403121561053257600080fd5b6102c882610402565b6000825161054d818460208701610434565b9190910192915050565b6020815260008251806020840152610576816040850160208701610434565b601f01601f19169190910160400192915050565b61034e806105996000396000f3fe60806040523661001357610011610017565b005b6100115b610027610022610067565b610100565b565b606061004e83836040518060600160405280602781526020016102f260279139610124565b9392505050565b6001600160a01b03163b151590565b90565b600061009a7fa3f0ad74e5423aebfd80d3ef4346578335a9a72aeaee59ff6cb3582b35133d50546001600160a01b031690565b6001600160a01b0316635c60da1b6040518163ffffffff1660e01b8152600401602060405180830381865afa1580156100d7573d6000803e3d6000fd5b505050506040513d601f19601f820116820180604052508101906100fb9190610249565b905090565b3660008037600080366000845af43d6000803e80801561011f573d6000f35b3d6000fd5b6060600080856001600160a01b03168560405161014191906102a2565b600060405180830381855af49150503d806000811461017c576040519150601f19603f3d011682016040523d82523d6000602084013e610181565b606091505b50915091506101928683838761019c565b9695505050505050565b6060831561020d578251610206576001600160a01b0385163b6102065760405162461bcd60e51b815260206004820152601d60248201527f416464726573733a2063616c6c20746f206e6f6e2d636f6e747261637400000060448201526064015b60405180910390fd5b5081610217565b610217838361021f565b949350505050565b81511561022f5781518083602001fd5b8060405162461bcd60e51b81526004016101fd91906102be565b60006020828403121561025b57600080fd5b81516001600160a01b038116811461004e57600080fd5b60005b8381101561028d578181015183820152602001610275565b8381111561029c576000848401525b50505050565b600082516102b4818460208701610272565b9190910192915050565b60208152600082518060208401526102dd816040850160208701610272565b601f01601f1916919091016040019291505056fe416464726573733a206c6f772d6c6576656c2064656c65676174652063616c6c206661696c6564a2646970667358221220d51e81d3bc5ed20a26aeb05dce7e825c503b2061aa78628027300c8d65b9d89a64736f6c634300080c0033416464726573733a206c6f772d6c6576656c2064656c65676174652063616c6c206661696c65640000000000000000000000007261c2bd75a7ace1762f6d7fae8f63215581832d00000000000000000000000000000000000000000000000000000000000000400000000000000000000000000000000000000000000000000000000000000000"
        }
      ],
      "isFixedGasLimit": false
    },
    {
      "hash": "0x1fbb02b68318bb3a918f75666d9bba44df5bf9bb5a4e303e8bc7683518c910f8",
      "transactionType": "CREATE",
      "contractName": "APEthEarlyDeposits",
      "contractAddress": "0x293f532ea204f652c2627c0b6eefe8f203586412",
      "function": null,
      "arguments": [
        "0x51336769321dE54925E2da6881D7BDCb02258D5e",
        "0x4CD6111b650EaEaE376853D44cb5DAA3B7e3Da82"
      ],
      "transaction": {
        "from": "0x51336769321de54925e2da6881d7bdcb02258d5e",
        "gas": "0x806f7",
        "value": "0x0",
        "input": "0x60a060405234801561001057600080fd5b5060405161071338038061071383398101604081905261002f916100e6565b816001600160a01b03811661005e57604051631e4fbdf760e01b81526000600482015260240160405180910390fd5b6100678161007a565b506001600160a01b031660805250610119565b600080546001600160a01b038381166001600160a01b0319831681178455604051919092169283917f8be0079c531659141344cd1fd0a4f28419497f9722a3daafe3b4186f6b6457e09190a35050565b80516001600160a01b03811681146100e157600080fd5b919050565b600080604083850312156100f957600080fd5b610102836100ca565b9150610110602084016100ca565b90509250929050565b6080516105d861013b6000396000818161021f01526102ba01526105d86000f3fe6080604052600436106100745760003560e01c80638da5cb5b1161004e5780638da5cb5b146100d7578063f2fde38b14610104578063f340fa0114610124578063fc7e286d1461013757610084565b80631e2fd2cf1461008d5780633ccfd60b146100ad578063715018a6146100c257610084565b366100845761008233610172565b005b61008233610172565b34801561009957600080fd5b506100826100a83660046104fa565b6101e3565b3480156100b957600080fd5b5061008261037e565b3480156100ce57600080fd5b50610082610426565b3480156100e357600080fd5b506000546040516001600160a01b0390911681526020015b60405180910390f35b34801561011057600080fd5b5061008261011f3660046104fa565b61043a565b6100826101323660046104fa565b610172565b34801561014357600080fd5b506101646101523660046104fa565b60016020526000908152604090205481565b6040519081526020016100fb565b6001600160a01b0381166000908152600160205260408120805434929061019a90849061052a565b9091555050604080516001600160a01b03831681523460208201527fe1fffcc4923d04b559f4d29a8bfc6cda04eb5b0d3c460751c2402c5c5cc9109c910160405180910390a150565b6101eb61047d565b6001600160a01b0380821660009081526001602090815260408083208054908490558151631249c58b60e01b8152915190947f00000000000000000000000000000000000000000000000000000000000000001692631249c58b92869260048083019392829003018185885af1158015610269573d6000803e3d6000fd5b50505050506040513d601f19601f8201168201806040525081019061028e9190610551565b60405163a9059cbb60e01b81526001600160a01b038581166004830152602482018390529192506000917f0000000000000000000000000000000000000000000000000000000000000000169063a9059cbb906044016020604051808303816000875af1158015610303573d6000803e3d6000fd5b505050506040513d601f19601f82011682018060405250810190610327919061056a565b9050806103365761033661058c565b604080516001600160a01b0386168152602081018490527f30385c845b448a36257a6a1716e6ad2e1bc2cbe333cde1e69fe849ad6511adfe910160405180910390a150505050565b33600081815260016020526040808220805490839055905190929083908381818185875af1925050503d80600081146103d3576040519150601f19603f3d011682016040523d82523d6000602084013e6103d8565b606091505b50509050806103e9576103e961058c565b60408051338152602081018490527f7fcf532c15f0a6db0bd6d0e038bea71d30d808c7d98cb3bf7268a95bf5081b65910160405180910390a15050565b61042e61047d565b61043860006104aa565b565b61044261047d565b6001600160a01b03811661047157604051631e4fbdf760e01b8152600060048201526024015b60405180910390fd5b61047a816104aa565b50565b6000546001600160a01b031633146104385760405163118cdaa760e01b8152336004820152602401610468565b600080546001600160a01b038381166001600160a01b0319831681178455604051919092169283917f8be0079c531659141344cd1fd0a4f28419497f9722a3daafe3b4186f6b6457e09190a35050565b60006020828403121561050c57600080fd5b81356001600160a01b038116811461052357600080fd5b9392505050565b8082018082111561054b57634e487b7160e01b600052601160045260246000fd5b92915050565b60006020828403121561056357600080fd5b5051919050565b60006020828403121561057c57600080fd5b8151801515811461052357600080fd5b634e487b7160e01b600052600160045260246000fdfea26469706673582212207c7960ded0f0966d748814f30587d9985016fcacec75bbad1dfe891b1337fa2d64736f6c6343000814003300000000000000000000000051336769321de54925e2da6881d7bdcb02258d5e0000000000000000000000004cd6111b650eaeae376853d44cb5daa3b7e3da82",
        "nonce": "0x16c",
        "chainId": "0x4268"
      },
      "additionalContracts": [],
      "isFixedGasLimit": false
    },
    {
      "hash": "0x54789ac11e1f533b44f063a7a051580ac75204c35cb43ff4856631fe6654f26d",
      "transactionType": "CALL",
      "contractName": "ERC1967Proxy",
      "contractAddress": "0x4cd6111b650eaeae376853d44cb5daa3b7e3da82",
      "function": null,
      "arguments": null,
      "transaction": {
        "from": "0x51336769321de54925e2da6881d7bdcb02258d5e",
        "to": "0x4cd6111b650eaeae376853d44cb5daa3b7e3da82",
        "gas": "0x13127",
        "value": "0x0",
        "input": "0x2f2ff15d295f55eb38fd730aba310b22a9da9b20c8edd7351d8d61575c6b7f1783f3a5e8000000000000000000000000293f532ea204f652c2627c0b6eefe8f203586412",
        "nonce": "0x16d",
        "chainId": "0x4268"
      },
      "additionalContracts": [],
      "isFixedGasLimit": false
    }
  ],
  "receipts": [
    {
      "status": "0x1",
      "cumulativeGasUsed": "0x227c80",
      "logs": [],
      "logsBloom": "0x00000000000000000000000000000000000000000000000000000000000000000000000000000000000000000000000000000000000000000000000000000000000000000000000000000000000000000000000000000000000000000000000000000000000000000000000000000000000000000000000000000000000000000000000000000000000000000000000000000000000000000000000000000000000000000000000000000000000000000000000000000000000000000000000000000000000000000000000000000000000000000000000000000000000000000000000000000000000000000000000000000000000000000000000000000000",
      "type": "0x2",
      "transactionHash": "0x3be47b2f76537389182c037d65b94e242e5fee3e4c9679c3508797ca545b7c44",
      "transactionIndex": "0xf",
      "blockHash": "0xde2b76b76a6d980d3cc11abf27f9a99f043c372ebdc697a7d0514b05ce5d2acc",
      "blockNumber": "0x19e99b",
      "gasUsed": "0xb492",
      "effectiveGasPrice": "0x4201259a",
      "from": "0x51336769321de54925e2da6881d7bdcb02258d5e",
      "to": "0x5b366ad3b9e2f69213f795053a9fea6d6ee134bb",
      "contractAddress": null
    },
    {
      "status": "0x1",
      "cumulativeGasUsed": "0x2cf4c1",
      "logs": [
        {
          "address": "0x4cd6111b650eaeae376853d44cb5daa3b7e3da82",
          "topics": [
            "0xbc7cd75a20ee27fd9adebab32041f755214dbc6bffa90cc0225b39da2e5c2d3b",
            "0x000000000000000000000000936015c6ea382563d5d950cd09268231a7859bd3"
          ],
          "data": "0x",
          "blockHash": "0xde2b76b76a6d980d3cc11abf27f9a99f043c372ebdc697a7d0514b05ce5d2acc",
          "blockNumber": "0x19e99b",
          "transactionHash": "0x2abbadf6cab2dabcdb53f2a64105cff17ad29d1eea8207c32d0e6f5effc40601",
          "transactionIndex": "0x10",
          "logIndex": "0x1b",
          "removed": false
        },
        {
          "address": "0x4cd6111b650eaeae376853d44cb5daa3b7e3da82",
          "topics": [
            "0x2f8788117e7eff1d82e926ec794901d17c78024a50270940304540a733656f0d",
            "0x0000000000000000000000000000000000000000000000000000000000000000",
            "0x00000000000000000000000051336769321de54925e2da6881d7bdcb02258d5e",
            "0x0000000000000000000000004e59b44847b379578588920ca78fbf26c0b4956c"
          ],
          "data": "0x",
          "blockHash": "0xde2b76b76a6d980d3cc11abf27f9a99f043c372ebdc697a7d0514b05ce5d2acc",
          "blockNumber": "0x19e99b",
          "transactionHash": "0x2abbadf6cab2dabcdb53f2a64105cff17ad29d1eea8207c32d0e6f5effc40601",
          "transactionIndex": "0x10",
          "logIndex": "0x1c",
          "removed": false
        },
        {
          "address": "0xeb42b730d87b7fca8cbc3b4acc5e82e6e45b65c0",
          "topics": [
            "0x1cf3b03a6cf19fa2baba4df148e9dcabedea7f8a5c07840e207e5c089be95d3e",
            "0x0000000000000000000000007261c2bd75a7ace1762f6d7fae8f63215581832d"
          ],
          "data": "0x",
          "blockHash": "0xde2b76b76a6d980d3cc11abf27f9a99f043c372ebdc697a7d0514b05ce5d2acc",
          "blockNumber": "0x19e99b",
          "transactionHash": "0x2abbadf6cab2dabcdb53f2a64105cff17ad29d1eea8207c32d0e6f5effc40601",
          "transactionIndex": "0x10",
          "logIndex": "0x1d",
          "removed": false
        },
        {
          "address": "0xeb42b730d87b7fca8cbc3b4acc5e82e6e45b65c0",
          "topics": [
            "0xca8dfc8c5e0a67a74501c072a3325f685259bebbae7cfd230ab85198a78b70cd",
            "0x0000000000000000000000004cd6111b650eaeae376853d44cb5daa3b7e3da82"
          ],
          "data": "0x",
          "blockHash": "0xde2b76b76a6d980d3cc11abf27f9a99f043c372ebdc697a7d0514b05ce5d2acc",
          "blockNumber": "0x19e99b",
          "transactionHash": "0x2abbadf6cab2dabcdb53f2a64105cff17ad29d1eea8207c32d0e6f5effc40601",
          "transactionIndex": "0x10",
          "logIndex": "0x1e",
          "removed": false
        },
        {
          "address": "0xeb42b730d87b7fca8cbc3b4acc5e82e6e45b65c0",
          "topics": [
            "0x7f26b83ff96e1f2b6a682f133852f6798a09c465da95921460cefb3847402498"
          ],
          "data": "0x0000000000000000000000000000000000000000000000000000000000000001",
          "blockHash": "0xde2b76b76a6d980d3cc11abf27f9a99f043c372ebdc697a7d0514b05ce5d2acc",
          "blockNumber": "0x19e99b",
          "transactionHash": "0x2abbadf6cab2dabcdb53f2a64105cff17ad29d1eea8207c32d0e6f5effc40601",
          "transactionIndex": "0x10",
          "logIndex": "0x1f",
          "removed": false
        },
        {
          "address": "0x30770d7e3e71112d7a6b7259542d1f680a70e315",
          "topics": [
            "0x21c99d0db02213c32fff5b05cf0a718ab5f858802b91498f80d82270289d856a",
            "0x000000000000000000000000eb42b730d87b7fca8cbc3b4acc5e82e6e45b65c0",
            "0x0000000000000000000000004cd6111b650eaeae376853d44cb5daa3b7e3da82"
          ],
          "data": "0x",
          "blockHash": "0xde2b76b76a6d980d3cc11abf27f9a99f043c372ebdc697a7d0514b05ce5d2acc",
          "blockNumber": "0x19e99b",
          "transactionHash": "0x2abbadf6cab2dabcdb53f2a64105cff17ad29d1eea8207c32d0e6f5effc40601",
          "transactionIndex": "0x10",
          "logIndex": "0x20",
          "removed": false
        },
        {
          "address": "0x4cd6111b650eaeae376853d44cb5daa3b7e3da82",
          "topics": [
            "0xc7f505b2f371ae2175ee4913f4499e1f2633a7b5936321eed1cdaeb6115181d2"
          ],
          "data": "0x0000000000000000000000000000000000000000000000000000000000000001",
          "blockHash": "0xde2b76b76a6d980d3cc11abf27f9a99f043c372ebdc697a7d0514b05ce5d2acc",
          "blockNumber": "0x19e99b",
          "transactionHash": "0x2abbadf6cab2dabcdb53f2a64105cff17ad29d1eea8207c32d0e6f5effc40601",
          "transactionIndex": "0x10",
          "logIndex": "0x21",
          "removed": false
        }
      ],
      "logsBloom": "0x00000004000000000000200008000000400000000400000000000000000000000000000000000000000000000000000000000080000000000000000000000000000000000000000000040000001002000000000000000400000000000000400000000042020000000000000000000800080000000000000000000000000040080000004000002000008800000000080803000000001080004000000000000000000000000001000000000000000400000000000008000002001000000000000000000020400000000000000000040080000000000004020100800000001020000000000000000000000000000000000090008000200000000000000400080000",
      "type": "0x2",
      "transactionHash": "0x2abbadf6cab2dabcdb53f2a64105cff17ad29d1eea8207c32d0e6f5effc40601",
      "transactionIndex": "0x10",
      "blockHash": "0xde2b76b76a6d980d3cc11abf27f9a99f043c372ebdc697a7d0514b05ce5d2acc",
      "blockNumber": "0x19e99b",
      "gasUsed": "0xa7841",
      "effectiveGasPrice": "0x4201259a",
      "from": "0x51336769321de54925e2da6881d7bdcb02258d5e",
      "to": "0x4e59b44847b379578588920ca78fbf26c0b4956c",
      "contractAddress": null
    },
    {
      "status": "0x1",
      "cumulativeGasUsed": "0x3321f5",
      "logs": [
        {
          "address": "0x293f532ea204f652c2627c0b6eefe8f203586412",
          "topics": [
            "0x8be0079c531659141344cd1fd0a4f28419497f9722a3daafe3b4186f6b6457e0",
            "0x0000000000000000000000000000000000000000000000000000000000000000",
            "0x00000000000000000000000051336769321de54925e2da6881d7bdcb02258d5e"
          ],
          "data": "0x",
          "blockHash": "0xde2b76b76a6d980d3cc11abf27f9a99f043c372ebdc697a7d0514b05ce5d2acc",
          "blockNumber": "0x19e99b",
          "transactionHash": "0x1fbb02b68318bb3a918f75666d9bba44df5bf9bb5a4e303e8bc7683518c910f8",
          "transactionIndex": "0x11",
          "logIndex": "0x22",
          "removed": false
        }
      ],
      "logsBloom": "0x00000000000000000000000000000000000000000400000000800000000000000000000000000000000000000000000000000000000000000000000000000000000000000000000000000000000000000001000000000000000000000000000000000000020000000000000000000800000000000000000000000000000000400000000000000000000000000000000002000000000000000000000000000000000000000000000000000000000000000000000020000000000000000000000000040000400000000000000000000000020000000000000000000000000020000000000000000000000000000000000000000000000000000000000000000000",
      "type": "0x2",
      "transactionHash": "0x1fbb02b68318bb3a918f75666d9bba44df5bf9bb5a4e303e8bc7683518c910f8",
      "transactionIndex": "0x11",
      "blockHash": "0xde2b76b76a6d980d3cc11abf27f9a99f043c372ebdc697a7d0514b05ce5d2acc",
      "blockNumber": "0x19e99b",
      "gasUsed": "0x62d34",
      "effectiveGasPrice": "0x4201259a",
      "from": "0x51336769321de54925e2da6881d7bdcb02258d5e",
      "to": null,
      "contractAddress": "0x293f532ea204f652c2627c0b6eefe8f203586412"
    },
    {
      "status": "0x1",
      "cumulativeGasUsed": "0x33fee3",
      "logs": [
        {
          "address": "0x4cd6111b650eaeae376853d44cb5daa3b7e3da82",
          "topics": [
            "0x2f8788117e7eff1d82e926ec794901d17c78024a50270940304540a733656f0d",
            "0x295f55eb38fd730aba310b22a9da9b20c8edd7351d8d61575c6b7f1783f3a5e8",
            "0x000000000000000000000000293f532ea204f652c2627c0b6eefe8f203586412",
            "0x00000000000000000000000051336769321de54925e2da6881d7bdcb02258d5e"
          ],
          "data": "0x",
          "blockHash": "0xde2b76b76a6d980d3cc11abf27f9a99f043c372ebdc697a7d0514b05ce5d2acc",
          "blockNumber": "0x19e99b",
          "transactionHash": "0x54789ac11e1f533b44f063a7a051580ac75204c35cb43ff4856631fe6654f26d",
          "transactionIndex": "0x12",
          "logIndex": "0x23",
          "removed": false
        }
      ],
      "logsBloom": "0x00000004000000000000000000000000000000000400000000000000000000000000000000000000000000000000000000000080000000000000000000000000000000008000000000000000000000000000000000000000000000000000000000000400000000000000000000000000000000000000000000000000000000000000000000000000000000000000000002000000000000004000000000000000000000000000000000000000000000000010000008000000001000000000000000000000400000000000000000000000000020000000000100000000000000000000000000000200000000000000000000000001000000000000000000000000",
      "type": "0x2",
      "transactionHash": "0x54789ac11e1f533b44f063a7a051580ac75204c35cb43ff4856631fe6654f26d",
      "transactionIndex": "0x12",
      "blockHash": "0xde2b76b76a6d980d3cc11abf27f9a99f043c372ebdc697a7d0514b05ce5d2acc",
      "blockNumber": "0x19e99b",
      "gasUsed": "0xdcee",
      "effectiveGasPrice": "0x4201259a",
      "from": "0x51336769321de54925e2da6881d7bdcb02258d5e",
      "to": "0x4cd6111b650eaeae376853d44cb5daa3b7e3da82",
      "contractAddress": null
    }
  ],
  "libraries": [],
  "pending": [],
  "returns": {},
  "timestamp": 1717882059,
  "chain": 17000,
  "commit": "a366540"
}