{
  "transactions": [
    {
      "hash": "0x0ef3adb5c20a2bb7a9f738aea84c003a6662a5eac0bf5568f779887824d2f696",
      "transactionType": "CALL",
      "contractName": null,
      "contractAddress": "0x91f04ef4aba1277f15b9eaad2bf6fe48ed450b22",
      "function": "setAPEth(address)",
      "arguments": [
        "0x93A027a4348a7f12F0d54568561EA6A6f760d534"
      ],
      "transaction": {
        "from": "0x51336769321de54925e2da6881d7bdcb02258d5e",
        "to": "0x91f04ef4aba1277f15b9eaad2bf6fe48ed450b22",
        "gas": "0x10815",
        "value": "0x0",
        "input": "0x4bd6f7ca00000000000000000000000093a027a4348a7f12f0d54568561ea6a6f760d534",
        "nonce": "0x107",
        "chainId": "0x4268"
      },
      "additionalContracts": [],
      "isFixedGasLimit": false
    },
    {
      "hash": "0x63b46aefa59e8db5681bd11aa871ffe0a4cfed3b2e47a2dcc9cdbe1329bdbae6",
      "transactionType": "CREATE2",
      "contractName": "ERC1967Proxy",
      "contractAddress": "0x93a027a4348a7f12f0d54568561ea6a6f760d534",
      "function": null,
      "arguments": [
        "0x8ce51C6E07f88BAD8bd66d422fa36418f2D38Bc3",
        "0x485cc955000000000000000000000000a53a6fe2d8ad977ad926c485343ba39f32d3a3f600000000000000000000000091f04ef4aba1277f15b9eaad2bf6fe48ed450b22"
      ],
      "transaction": {
        "from": "0x51336769321de54925e2da6881d7bdcb02258d5e",
        "to": "0x4e59b44847b379578588920ca78fbf26c0b4956c",
        "gas": "0xe70f0",
        "value": "0x0",
        "input": "0xfdd0c6cf81c69062e2a78215a37d8ac93cac41614a0d2468c6fc282087522ac2608060405260405161040a38038061040a83398101604081905261002291610268565b61002c8282610033565b5050610352565b61003c82610092565b6040516001600160a01b038316907fbc7cd75a20ee27fd9adebab32041f755214dbc6bffa90cc0225b39da2e5c2d3b90600090a280511561008657610081828261010e565b505050565b61008e610185565b5050565b806001600160a01b03163b6000036100cd57604051634c9c8ce360e01b81526001600160a01b03821660048201526024015b60405180910390fd5b7f360894a13ba1a3210667c828492db98dca3e2076cc3735a920a3ca505d382bbc80546001600160a01b0319166001600160a01b0392909216919091179055565b6060600080846001600160a01b03168460405161012b9190610336565b600060405180830381855af49150503d8060008114610166576040519150601f19603f3d011682016040523d82523d6000602084013e61016b565b606091505b50909250905061017c8583836101a6565b95945050505050565b34156101a45760405163b398979f60e01b815260040160405180910390fd5b565b6060826101bb576101b682610205565b6101fe565b81511580156101d257506001600160a01b0384163b155b156101fb57604051639996b31560e01b81526001600160a01b03851660048201526024016100c4565b50805b9392505050565b8051156102155780518082602001fd5b604051630a12f52160e11b815260040160405180910390fd5b634e487b7160e01b600052604160045260246000fd5b60005b8381101561025f578181015183820152602001610247565b50506000910152565b6000806040838503121561027b57600080fd5b82516001600160a01b038116811461029257600080fd5b60208401519092506001600160401b03808211156102af57600080fd5b818501915085601f8301126102c357600080fd5b8151818111156102d5576102d561022e565b604051601f8201601f19908116603f011681019083821181831017156102fd576102fd61022e565b8160405282815288602084870101111561031657600080fd5b610327836020830160208801610244565b80955050505050509250929050565b60008251610348818460208701610244565b9190910192915050565b60aa806103606000396000f3fe6080604052600a600c565b005b60186014601a565b6051565b565b6000604c7f360894a13ba1a3210667c828492db98dca3e2076cc3735a920a3ca505d382bbc546001600160a01b031690565b905090565b3660008037600080366000845af43d6000803e808015606f573d6000f35b3d6000fdfea264697066735822122055d7701bcc621aea7c61bfc54c5fcb9456eb5ec0e10858dd31fe77785ecfb60464736f6c634300081400330000000000000000000000008ce51c6e07f88bad8bd66d422fa36418f2d38bc300000000000000000000000000000000000000000000000000000000000000400000000000000000000000000000000000000000000000000000000000000044485cc955000000000000000000000000a53a6fe2d8ad977ad926c485343ba39f32d3a3f600000000000000000000000091f04ef4aba1277f15b9eaad2bf6fe48ed450b2200000000000000000000000000000000000000000000000000000000",
        "nonce": "0x108",
        "chainId": "0x4268"
      },
      "additionalContracts": [
        {
          "transactionType": "CREATE2",
          "address": "0x1f548c5c9bb46fff5d38b91c721b64fe14d9626c",
          "initCode": "0x608060405260405161090e38038061090e83398101604081905261002291610460565b61002e82826000610035565b505061058a565b61003e83610100565b6040516001600160a01b038416907f1cf3b03a6cf19fa2baba4df148e9dcabedea7f8a5c07840e207e5c089be95d3e90600090a260008251118061007f5750805b156100fb576100f9836001600160a01b0316635c60da1b6040518163ffffffff1660e01b8152600401602060405180830381865afa1580156100c5573d6000803e3d6000fd5b505050506040513d601f19601f820116820180604052508101906100e99190610520565b836102a360201b6100291760201c565b505b505050565b610113816102cf60201b6100551760201c565b6101725760405162461bcd60e51b815260206004820152602560248201527f455243313936373a206e657720626561636f6e206973206e6f74206120636f6e6044820152641d1c9858dd60da1b60648201526084015b60405180910390fd5b6101e6816001600160a01b0316635c60da1b6040518163ffffffff1660e01b8152600401602060405180830381865afa1580156101b3573d6000803e3d6000fd5b505050506040513d601f19601f820116820180604052508101906101d79190610520565b6102cf60201b6100551760201c565b61024b5760405162461bcd60e51b815260206004820152603060248201527f455243313936373a20626561636f6e20696d706c656d656e746174696f6e206960448201526f1cc81b9bdd08184818dbdb9d1c9858dd60821b6064820152608401610169565b806102827fa3f0ad74e5423aebfd80d3ef4346578335a9a72aeaee59ff6cb3582b35133d5060001b6102de60201b6100641760201c565b80546001600160a01b0319166001600160a01b039290921691909117905550565b60606102c883836040518060600160405280602781526020016108e7602791396102e1565b9392505050565b6001600160a01b03163b151590565b90565b6060600080856001600160a01b0316856040516102fe919061053b565b600060405180830381855af49150503d8060008114610339576040519150601f19603f3d011682016040523d82523d6000602084013e61033e565b606091505b5090925090506103508683838761035a565b9695505050505050565b606083156103c65782516103bf576001600160a01b0385163b6103bf5760405162461bcd60e51b815260206004820152601d60248201527f416464726573733a2063616c6c20746f206e6f6e2d636f6e74726163740000006044820152606401610169565b50816103d0565b6103d083836103d8565b949350505050565b8151156103e85781518083602001fd5b8060405162461bcd60e51b81526004016101699190610557565b80516001600160a01b038116811461041957600080fd5b919050565b634e487b7160e01b600052604160045260246000fd5b60005b8381101561044f578181015183820152602001610437565b838111156100f95750506000910152565b6000806040838503121561047357600080fd5b61047c83610402565b60208401519092506001600160401b038082111561049957600080fd5b818501915085601f8301126104ad57600080fd5b8151818111156104bf576104bf61041e565b604051601f8201601f19908116603f011681019083821181831017156104e7576104e761041e565b8160405282815288602084870101111561050057600080fd5b610511836020830160208801610434565b80955050505050509250929050565b60006020828403121561053257600080fd5b6102c882610402565b6000825161054d818460208701610434565b9190910192915050565b6020815260008251806020840152610576816040850160208701610434565b601f01601f19169190910160400192915050565b61034e806105996000396000f3fe60806040523661001357610011610017565b005b6100115b610027610022610067565b610100565b565b606061004e83836040518060600160405280602781526020016102f260279139610124565b9392505050565b6001600160a01b03163b151590565b90565b600061009a7fa3f0ad74e5423aebfd80d3ef4346578335a9a72aeaee59ff6cb3582b35133d50546001600160a01b031690565b6001600160a01b0316635c60da1b6040518163ffffffff1660e01b8152600401602060405180830381865afa1580156100d7573d6000803e3d6000fd5b505050506040513d601f19601f820116820180604052508101906100fb9190610249565b905090565b3660008037600080366000845af43d6000803e80801561011f573d6000f35b3d6000fd5b6060600080856001600160a01b03168560405161014191906102a2565b600060405180830381855af49150503d806000811461017c576040519150601f19603f3d011682016040523d82523d6000602084013e610181565b606091505b50915091506101928683838761019c565b9695505050505050565b6060831561020d578251610206576001600160a01b0385163b6102065760405162461bcd60e51b815260206004820152601d60248201527f416464726573733a2063616c6c20746f206e6f6e2d636f6e747261637400000060448201526064015b60405180910390fd5b5081610217565b610217838361021f565b949350505050565b81511561022f5781518083602001fd5b8060405162461bcd60e51b81526004016101fd91906102be565b60006020828403121561025b57600080fd5b81516001600160a01b038116811461004e57600080fd5b60005b8381101561028d578181015183820152602001610275565b8381111561029c576000848401525b50505050565b600082516102b4818460208701610272565b9190910192915050565b60208152600082518060208401526102dd816040850160208701610272565b601f01601f1916919091016040019291505056fe416464726573733a206c6f772d6c6576656c2064656c65676174652063616c6c206661696c6564a2646970667358221220d51e81d3bc5ed20a26aeb05dce7e825c503b2061aa78628027300c8d65b9d89a64736f6c634300080c0033416464726573733a206c6f772d6c6576656c2064656c65676174652063616c6c206661696c65640000000000000000000000007261c2bd75a7ace1762f6d7fae8f63215581832d00000000000000000000000000000000000000000000000000000000000000400000000000000000000000000000000000000000000000000000000000000000"
        }
      ],
      "isFixedGasLimit": false
    }
  ],
  "receipts": [
    {
      "status": "0x1",
      "cumulativeGasUsed": "0x1eed5a",
      "logs": [],
      "logsBloom": "0x00000000000000000000000000000000000000000000000000000000000000000000000000000000000000000000000000000000000000000000000000000000000000000000000000000000000000000000000000000000000000000000000000000000000000000000000000000000000000000000000000000000000000000000000000000000000000000000000000000000000000000000000000000000000000000000000000000000000000000000000000000000000000000000000000000000000000000000000000000000000000000000000000000000000000000000000000000000000000000000000000000000000000000000000000000000",
      "type": "0x2",
      "transactionHash": "0x0ef3adb5c20a2bb7a9f738aea84c003a6662a5eac0bf5568f779887824d2f696",
      "transactionIndex": "0x13",
      "blockHash": "0xe2966d71c4e017e88e19121e03a3166e86be831d42399b880898d75588ba73d5",
      "blockNumber": "0x1899c8",
      "gasUsed": "0xb492",
      "effectiveGasPrice": "0x5203fd30",
      "from": "0x51336769321de54925e2da6881d7bdcb02258d5e",
      "to": "0x91f04ef4aba1277f15b9eaad2bf6fe48ed450b22",
      "contractAddress": null
    },
    {
      "status": "0x1",
      "cumulativeGasUsed": "0x2962c5",
      "logs": [
        {
          "address": "0x93a027a4348a7f12f0d54568561ea6a6f760d534",
          "topics": [
            "0xbc7cd75a20ee27fd9adebab32041f755214dbc6bffa90cc0225b39da2e5c2d3b",
            "0x0000000000000000000000008ce51c6e07f88bad8bd66d422fa36418f2d38bc3"
          ],
          "data": "0x",
          "blockHash": "0xe2966d71c4e017e88e19121e03a3166e86be831d42399b880898d75588ba73d5",
          "blockNumber": "0x1899c8",
          "transactionHash": "0x63b46aefa59e8db5681bd11aa871ffe0a4cfed3b2e47a2dcc9cdbe1329bdbae6",
          "transactionIndex": "0x14",
          "logIndex": "0x25",
          "removed": false
        },
        {
          "address": "0x93a027a4348a7f12f0d54568561ea6a6f760d534",
          "topics": [
            "0x8be0079c531659141344cd1fd0a4f28419497f9722a3daafe3b4186f6b6457e0",
            "0x0000000000000000000000000000000000000000000000000000000000000000",
            "0x000000000000000000000000a53a6fe2d8ad977ad926c485343ba39f32d3a3f6"
          ],
          "data": "0x",
          "blockHash": "0xe2966d71c4e017e88e19121e03a3166e86be831d42399b880898d75588ba73d5",
          "blockNumber": "0x1899c8",
          "transactionHash": "0x63b46aefa59e8db5681bd11aa871ffe0a4cfed3b2e47a2dcc9cdbe1329bdbae6",
          "transactionIndex": "0x14",
          "logIndex": "0x26",
          "removed": false
        },
        {
          "address": "0x1f548c5c9bb46fff5d38b91c721b64fe14d9626c",
          "topics": [
            "0x1cf3b03a6cf19fa2baba4df148e9dcabedea7f8a5c07840e207e5c089be95d3e",
            "0x0000000000000000000000007261c2bd75a7ace1762f6d7fae8f63215581832d"
          ],
          "data": "0x",
          "blockHash": "0xe2966d71c4e017e88e19121e03a3166e86be831d42399b880898d75588ba73d5",
          "blockNumber": "0x1899c8",
          "transactionHash": "0x63b46aefa59e8db5681bd11aa871ffe0a4cfed3b2e47a2dcc9cdbe1329bdbae6",
          "transactionIndex": "0x14",
          "logIndex": "0x27",
          "removed": false
        },
        {
          "address": "0x1f548c5c9bb46fff5d38b91c721b64fe14d9626c",
          "topics": [
            "0xca8dfc8c5e0a67a74501c072a3325f685259bebbae7cfd230ab85198a78b70cd",
            "0x00000000000000000000000093a027a4348a7f12f0d54568561ea6a6f760d534"
          ],
          "data": "0x",
          "blockHash": "0xe2966d71c4e017e88e19121e03a3166e86be831d42399b880898d75588ba73d5",
          "blockNumber": "0x1899c8",
          "transactionHash": "0x63b46aefa59e8db5681bd11aa871ffe0a4cfed3b2e47a2dcc9cdbe1329bdbae6",
          "transactionIndex": "0x14",
          "logIndex": "0x28",
          "removed": false
        },
        {
          "address": "0x1f548c5c9bb46fff5d38b91c721b64fe14d9626c",
          "topics": [
            "0x7f26b83ff96e1f2b6a682f133852f6798a09c465da95921460cefb3847402498"
          ],
          "data": "0x0000000000000000000000000000000000000000000000000000000000000001",
          "blockHash": "0xe2966d71c4e017e88e19121e03a3166e86be831d42399b880898d75588ba73d5",
          "blockNumber": "0x1899c8",
          "transactionHash": "0x63b46aefa59e8db5681bd11aa871ffe0a4cfed3b2e47a2dcc9cdbe1329bdbae6",
          "transactionIndex": "0x14",
          "logIndex": "0x29",
          "removed": false
        },
        {
          "address": "0x30770d7e3e71112d7a6b7259542d1f680a70e315",
          "topics": [
            "0x21c99d0db02213c32fff5b05cf0a718ab5f858802b91498f80d82270289d856a",
            "0x0000000000000000000000001f548c5c9bb46fff5d38b91c721b64fe14d9626c",
            "0x00000000000000000000000093a027a4348a7f12f0d54568561ea6a6f760d534"
          ],
          "data": "0x",
          "blockHash": "0xe2966d71c4e017e88e19121e03a3166e86be831d42399b880898d75588ba73d5",
          "blockNumber": "0x1899c8",
          "transactionHash": "0x63b46aefa59e8db5681bd11aa871ffe0a4cfed3b2e47a2dcc9cdbe1329bdbae6",
          "transactionIndex": "0x14",
          "logIndex": "0x2a",
          "removed": false
        },
        {
          "address": "0x93a027a4348a7f12f0d54568561ea6a6f760d534",
          "topics": [
            "0xc7f505b2f371ae2175ee4913f4499e1f2633a7b5936321eed1cdaeb6115181d2"
          ],
          "data": "0x0000000000000000000000000000000000000000000000000000000000000001",
          "blockHash": "0xe2966d71c4e017e88e19121e03a3166e86be831d42399b880898d75588ba73d5",
          "blockNumber": "0x1899c8",
          "transactionHash": "0x63b46aefa59e8db5681bd11aa871ffe0a4cfed3b2e47a2dcc9cdbe1329bdbae6",
          "transactionIndex": "0x14",
          "logIndex": "0x2b",
          "removed": false
        }
      ],
      "logsBloom": "0x00000000000000000000200000000000400000000000001000800000000000000000000000000000000000000000000000000000000000000000000000000002000000000001000000040000003002000001000000000200000000000000400000000002020000000200000000000800400000000000000000000000000000480000000000102000000800000000080001000000000080000000000000000000000000000040000000000000000400000000000000000000000000000000100000000020000000000000000000040000000000000804020000800000021420000100000000000008000000000000000010008000200000400020000000000000",
      "type": "0x2",
      "transactionHash": "0x63b46aefa59e8db5681bd11aa871ffe0a4cfed3b2e47a2dcc9cdbe1329bdbae6",
      "transactionIndex": "0x14",
      "blockHash": "0xe2966d71c4e017e88e19121e03a3166e86be831d42399b880898d75588ba73d5",
      "blockNumber": "0x1899c8",
      "gasUsed": "0xa756b",
      "effectiveGasPrice": "0x5203fd30",
      "from": "0x51336769321de54925e2da6881d7bdcb02258d5e",
      "to": "0x4e59b44847b379578588920ca78fbf26c0b4956c",
      "contractAddress": null
    }
  ],
  "libraries": [],
  "pending": [],
  "returns": {},
  "timestamp": 1716682458,
  "chain": 17000,
  "commit": "3e596dc"
}