{
  "transactions": [
    {
      "hash": "0x40d4e9079788dd1a129e169d9a527867e3260b79a399801044aafc738593482f",
      "transactionType": "CALL",
      "contractName": null,
      "contractAddress": "0x2f521b7c314952a5ed7849453a7d5a6ca2a00cdb",
      "function": "grantRole(bytes32,address)",
      "arguments": [
        "0x0000000000000000000000000000000000000000000000000000000000000000",
        "0x2f521B7c314952a5ED7849453A7d5a6Ca2a00cdB"
      ],
      "transaction": {
        "from": "0x51336769321de54925e2da6881d7bdcb02258d5e",
        "to": "0x2f521b7c314952a5ed7849453a7d5a6ca2a00cdb",
        "gas": "0x12f15",
        "value": "0x0",
        "input": "0x2f2ff15d00000000000000000000000000000000000000000000000000000000000000000000000000000000000000002f521b7c314952a5ed7849453a7d5a6ca2a00cdb",
        "nonce": "0x148",
        "chainId": "0x4268"
      },
      "additionalContracts": [],
      "isFixedGasLimit": false
    },
    {
      "hash": "0x1b79005db6a133b9dcdf1601941858c38d33413054e1a03ff755a91af07c4e03",
      "transactionType": "CALL",
      "contractName": null,
      "contractAddress": "0x2f521b7c314952a5ed7849453a7d5a6ca2a00cdb",
      "function": "renounceRole(bytes32,address)",
      "arguments": [
        "0x0000000000000000000000000000000000000000000000000000000000000000",
        "0x51336769321dE54925E2da6881D7BDCb02258D5e"
      ],
      "transaction": {
        "from": "0x51336769321de54925e2da6881d7bdcb02258d5e",
        "to": "0x2f521b7c314952a5ed7849453a7d5a6ca2a00cdb",
        "gas": "0xa00d",
        "value": "0x0",
        "input": "0x36568abe000000000000000000000000000000000000000000000000000000000000000000000000000000000000000051336769321de54925e2da6881d7bdcb02258d5e",
        "nonce": "0x149",
        "chainId": "0x4268"
      },
      "additionalContracts": [],
      "isFixedGasLimit": false
    },
    {
      "hash": "0x8f0c9255f51e5f7f334d13feb538504bbfe04e3482ae9e2c91a7d20e6af8d367",
      "transactionType": "CALL",
      "contractName": null,
      "contractAddress": "0x49b1755830596a5529cea60a4f07a62ee6ab3c55",
      "function": "setGuardian(address)",
      "arguments": [
        "0x2f521B7c314952a5ED7849453A7d5a6Ca2a00cdB"
      ],
      "transaction": {
        "from": "0x51336769321de54925e2da6881d7bdcb02258d5e",
        "to": "0x49b1755830596a5529cea60a4f07a62ee6ab3c55",
        "gas": "0x9c48",
        "value": "0x0",
        "input": "0x8a0dac4a0000000000000000000000002f521b7c314952a5ed7849453a7d5a6ca2a00cdb",
        "nonce": "0x14a",
        "chainId": "0x4268"
      },
      "additionalContracts": [],
      "isFixedGasLimit": false
    }
  ],
  "receipts": [
    {
      "status": "0x1",
      "cumulativeGasUsed": "0xb0aaad",
      "logs": [
        {
          "address": "0x2f521b7c314952a5ed7849453a7d5a6ca2a00cdb",
          "topics": [
            "0x2f8788117e7eff1d82e926ec794901d17c78024a50270940304540a733656f0d",
            "0x0000000000000000000000000000000000000000000000000000000000000000",
            "0x0000000000000000000000002f521b7c314952a5ed7849453a7d5a6ca2a00cdb",
            "0x00000000000000000000000051336769321de54925e2da6881d7bdcb02258d5e"
          ],
          "data": "0x",
          "blockHash": "0xb63f620c0ffa4f42ef5a16dc7ababe17e26b0c97119925a53c43c7a33f26d370",
          "blockNumber": "0x193e8b",
          "transactionHash": "0x40d4e9079788dd1a129e169d9a527867e3260b79a399801044aafc738593482f",
          "transactionIndex": "0x5d",
          "logIndex": "0xe4",
          "removed": false
        }
      ],
      "logsBloom": "0x00000004000000000000000000000020000000100400000000000000000000000000000000000000000000000000000000000000000000000000000000000000000000000000000000000000000000000000000000000000000000000000000000000000020000000000000000000800000002000000000000000000000000000000000000000000000000000000000002000000000000000000000000000000000000000000000000000000000200000000000000000000001000000000000000000800400000000000000000000008000000000000000100000000000020000000000000000000000000000000000000000000000000000000000000000000",
      "type": "0x2",
      "transactionHash": "0x40d4e9079788dd1a129e169d9a527867e3260b79a399801044aafc738593482f",
      "transactionIndex": "0x5d",
      "blockHash": "0xb63f620c0ffa4f42ef5a16dc7ababe17e26b0c97119925a53c43c7a33f26d370",
      "blockNumber": "0x193e8b",
      "gasUsed": "0xdb6e",
      "effectiveGasPrice": "0x48a1d1aa",
      "from": "0x51336769321de54925e2da6881d7bdcb02258d5e",
      "to": "0x2f521b7c314952a5ed7849453a7d5a6ca2a00cdb",
      "contractAddress": null
    },
    {
      "status": "0x1",
      "cumulativeGasUsed": "0xb11e8d",
      "logs": [
        {
          "address": "0x2f521b7c314952a5ed7849453a7d5a6ca2a00cdb",
          "topics": [
            "0xf6391f5c32d9c69d2a47ea670b442974b53935d1edc7fd64eb21e047a839171b",
            "0x0000000000000000000000000000000000000000000000000000000000000000",
            "0x00000000000000000000000051336769321de54925e2da6881d7bdcb02258d5e",
            "0x00000000000000000000000051336769321de54925e2da6881d7bdcb02258d5e"
          ],
          "data": "0x",
          "blockHash": "0xb63f620c0ffa4f42ef5a16dc7ababe17e26b0c97119925a53c43c7a33f26d370",
          "blockNumber": "0x193e8b",
          "transactionHash": "0x1b79005db6a133b9dcdf1601941858c38d33413054e1a03ff755a91af07c4e03",
          "transactionIndex": "0x5e",
          "logIndex": "0xe5",
          "removed": false
        }
      ],
      "logsBloom": "0x00000000000000000000000000000020000000000400000000000000000000000000000000000000000000000000000000200000000000000000000000000000000000000000000000000000000000000000000000000000000000000000000040000000020000000000000000000800000000000000000000000000000000000000000040000000000000000000000002000000000000000000000000000000000000000000000000000000000200000000000000000000000000000000000000000800400000000000000000000000000000000000000000000000000020000000000000000000000000000000000000000000000000000000000000000000",
      "type": "0x2",
      "transactionHash": "0x1b79005db6a133b9dcdf1601941858c38d33413054e1a03ff755a91af07c4e03",
      "transactionIndex": "0x5e",
      "blockHash": "0xb63f620c0ffa4f42ef5a16dc7ababe17e26b0c97119925a53c43c7a33f26d370",
      "blockNumber": "0x193e8b",
      "gasUsed": "0x73e0",
      "effectiveGasPrice": "0x48a1d1aa",
      "from": "0x51336769321de54925e2da6881d7bdcb02258d5e",
      "to": "0x2f521b7c314952a5ed7849453a7d5a6ca2a00cdb",
      "contractAddress": null
    },
    {
      "status": "0x1",
      "cumulativeGasUsed": "0xb18fb3",
      "logs": [],
      "logsBloom": "0x00000000000000000000000000000000000000000000000000000000000000000000000000000000000000000000000000000000000000000000000000000000000000000000000000000000000000000000000000000000000000000000000000000000000000000000000000000000000000000000000000000000000000000000000000000000000000000000000000000000000000000000000000000000000000000000000000000000000000000000000000000000000000000000000000000000000000000000000000000000000000000000000000000000000000000000000000000000000000000000000000000000000000000000000000000000",
      "type": "0x2",
      "transactionHash": "0x8f0c9255f51e5f7f334d13feb538504bbfe04e3482ae9e2c91a7d20e6af8d367",
      "transactionIndex": "0x5f",
      "blockHash": "0xb63f620c0ffa4f42ef5a16dc7ababe17e26b0c97119925a53c43c7a33f26d370",
      "blockNumber": "0x193e8b",
      "gasUsed": "0x7126",
      "effectiveGasPrice": "0x48a1d1aa",
      "from": "0x51336769321de54925e2da6881d7bdcb02258d5e",
      "to": "0x49b1755830596a5529cea60a4f07a62ee6ab3c55",
      "contractAddress": null
    }
  ],
  "libraries": [],
  "pending": [],
  "returns": {},
  "timestamp": 1717287160,
  "chain": 17000,
  "commit": "eb932fd"
}