{
  "transactions": [
    {
      "hash": "0x22aa7736d3b6eb362ebba0b6b878493ea3c7ceec6516ba552a57321316b8fd85",
      "transactionType": "CALL",
      "contractName": null,
      "contractAddress": "0x2f521b7c314952a5ed7849453a7d5a6ca2a00cdb",
      "function": "grantRole(bytes32,address)",
      "arguments": [
        "0x0000000000000000000000000000000000000000000000000000000000000000",
        "0x68BDeFf9aca67da30Ad7e78feACb3685A5c0863F"
      ],
      "transaction": {
        "from": "0x51336769321de54925e2da6881d7bdcb02258d5e",
        "to": "0x2f521b7c314952a5ed7849453a7d5a6ca2a00cdb",
        "gas": "0x12f15",
        "value": "0x0",
        "input": "0x2f2ff15d000000000000000000000000000000000000000000000000000000000000000000000000000000000000000068bdeff9aca67da30ad7e78feacb3685a5c0863f",
        "nonce": "0x144",
        "chainId": "0x4268"
      },
      "additionalContracts": [],
      "isFixedGasLimit": false
    },
    {
      "hash": "0x838b2164b893600249af807c53f9e42c77c43542929fc624ae437a23c8a7c595",
      "transactionType": "CALL",
      "contractName": null,
      "contractAddress": "0x2f521b7c314952a5ed7849453a7d5a6ca2a00cdb",
      "function": "revokeRole(bytes32,address)",
      "arguments": [
        "0x0000000000000000000000000000000000000000000000000000000000000000",
        "0x1804c8AB1F12E6bbf3894d4083f33e07309d1f38"
      ],
      "transaction": {
        "from": "0x51336769321de54925e2da6881d7bdcb02258d5e",
        "to": "0x2f521b7c314952a5ed7849453a7d5a6ca2a00cdb",
        "gas": "0xb758",
        "value": "0x0",
        "input": "0xd547741f00000000000000000000000000000000000000000000000000000000000000000000000000000000000000001804c8ab1f12e6bbf3894d4083f33e07309d1f38",
        "nonce": "0x145",
        "chainId": "0x4268"
      },
      "additionalContracts": [],
      "isFixedGasLimit": false
    },
    {
      "hash": "0x0d2641bef96bdd78e9020c26780b9fcec9e5aec8025c85a786b98c9d071be673",
      "transactionType": "CALL",
      "contractName": null,
      "contractAddress": "0x49b1755830596a5529cea60a4f07a62ee6ab3c55",
      "function": "setGuardian(address)",
      "arguments": [
        "0x68BDeFf9aca67da30Ad7e78feACb3685A5c0863F"
      ],
      "transaction": {
        "from": "0x51336769321de54925e2da6881d7bdcb02258d5e",
        "to": "0x49b1755830596a5529cea60a4f07a62ee6ab3c55",
        "gas": "0x9c48",
        "value": "0x0",
        "input": "0x8a0dac4a00000000000000000000000068bdeff9aca67da30ad7e78feacb3685a5c0863f",
        "nonce": "0x146",
        "chainId": "0x4268"
      },
      "additionalContracts": [],
      "isFixedGasLimit": false
    }
  ],
  "receipts": [
    {
      "status": "0x1",
      "cumulativeGasUsed": "0xe261f5",
      "logs": [
        {
          "address": "0x2f521b7c314952a5ed7849453a7d5a6ca2a00cdb",
          "topics": [
            "0x2f8788117e7eff1d82e926ec794901d17c78024a50270940304540a733656f0d",
            "0x0000000000000000000000000000000000000000000000000000000000000000",
            "0x00000000000000000000000068bdeff9aca67da30ad7e78feacb3685a5c0863f",
            "0x00000000000000000000000051336769321de54925e2da6881d7bdcb02258d5e"
          ],
          "data": "0x",
          "blockHash": "0x7b3f73416d294dd53f742027152b97556a1c8cf33be1d345ddfca45a316a38fa",
          "blockNumber": "0x193d8b",
          "transactionHash": "0x22aa7736d3b6eb362ebba0b6b878493ea3c7ceec6516ba552a57321316b8fd85",
          "transactionIndex": "0x65",
          "logIndex": "0xd9",
          "removed": false
        }
      ],
      "logsBloom": "0x00000004000000000000000000000020000000000400000000000000000000000000000000000000000000000000000000000000100000000000000000000000000000000000000000000000000000000000000000000000000000000000000000000000020000000000000000000800000000000000000000000000000000000000000000000000000000000000000002000000000000000000000000000000000000000000000000000000000200000000000000000000001000000000000000000800400000000000000000000000000000000000000100000000000020000000000000000000000000000000000000000000000000000000000100000000",
      "type": "0x2",
      "transactionHash": "0x22aa7736d3b6eb362ebba0b6b878493ea3c7ceec6516ba552a57321316b8fd85",
      "transactionIndex": "0x65",
      "blockHash": "0x7b3f73416d294dd53f742027152b97556a1c8cf33be1d345ddfca45a316a38fa",
      "blockNumber": "0x193d8b",
      "gasUsed": "0xdb6e",
      "effectiveGasPrice": "0x40ba8e8c",
      "from": "0x51336769321de54925e2da6881d7bdcb02258d5e",
      "to": "0x2f521b7c314952a5ed7849453a7d5a6ca2a00cdb",
      "contractAddress": null
    },
    {
      "status": "0x1",
      "cumulativeGasUsed": "0xe2e6b3",
      "logs": [],
      "logsBloom": "0x00000000000000000000000000000000000000000000000000000000000000000000000000000000000000000000000000000000000000000000000000000000000000000000000000000000000000000000000000000000000000000000000000000000000000000000000000000000000000000000000000000000000000000000000000000000000000000000000000000000000000000000000000000000000000000000000000000000000000000000000000000000000000000000000000000000000000000000000000000000000000000000000000000000000000000000000000000000000000000000000000000000000000000000000000000000",
      "type": "0x2",
      "transactionHash": "0x838b2164b893600249af807c53f9e42c77c43542929fc624ae437a23c8a7c595",
      "transactionIndex": "0x66",
      "blockHash": "0x7b3f73416d294dd53f742027152b97556a1c8cf33be1d345ddfca45a316a38fa",
      "blockNumber": "0x193d8b",
      "gasUsed": "0x84be",
      "effectiveGasPrice": "0x40ba8e8c",
      "from": "0x51336769321de54925e2da6881d7bdcb02258d5e",
      "to": "0x2f521b7c314952a5ed7849453a7d5a6ca2a00cdb",
      "contractAddress": null
    },
    {
      "status": "0x1",
      "cumulativeGasUsed": "0xe357d9",
      "logs": [],
      "logsBloom": "0x00000000000000000000000000000000000000000000000000000000000000000000000000000000000000000000000000000000000000000000000000000000000000000000000000000000000000000000000000000000000000000000000000000000000000000000000000000000000000000000000000000000000000000000000000000000000000000000000000000000000000000000000000000000000000000000000000000000000000000000000000000000000000000000000000000000000000000000000000000000000000000000000000000000000000000000000000000000000000000000000000000000000000000000000000000000",
      "type": "0x2",
      "transactionHash": "0x0d2641bef96bdd78e9020c26780b9fcec9e5aec8025c85a786b98c9d071be673",
      "transactionIndex": "0x67",
      "blockHash": "0x7b3f73416d294dd53f742027152b97556a1c8cf33be1d345ddfca45a316a38fa",
      "blockNumber": "0x193d8b",
      "gasUsed": "0x7126",
      "effectiveGasPrice": "0x40ba8e8c",
      "from": "0x51336769321de54925e2da6881d7bdcb02258d5e",
      "to": "0x49b1755830596a5529cea60a4f07a62ee6ab3c55",
      "contractAddress": null
    }
  ],
  "libraries": [],
  "pending": [],
  "returns": {},
  "timestamp": 1717283358,
  "chain": 17000,
  "commit": "eb932fd"
}