{
  "transactions": [
    {
      "hash": "0x49e6d34db1a69ded0dea1647e94beaa1e8bdbd3d37e475c046b65c7f70a90ec5",
      "transactionType": "CALL",
      "contractName": null,
      "contractAddress": "0x358c4f04537151f1662a06ac8f33b7eacc1d5978",
      "function": "transferOwnership(address)",
      "arguments": [
        "0xa53A6fE2d8Ad977aD926C485343Ba39f32D3A3F6"
      ],
      "transaction": {
        "from": "0x51336769321de54925e2da6881d7bdcb02258d5e",
        "to": "0x358c4f04537151f1662a06ac8f33b7eacc1d5978",
        "gas": "0xb567",
        "value": "0x0",
        "input": "0xf2fde38b000000000000000000000000a53a6fe2d8ad977ad926c485343ba39f32d3a3f6",
        "nonce": "0x121",
        "chainId": "0x4268"
      },
      "additionalContracts": [],
      "isFixedGasLimit": false
    },
    {
      "hash": "0x72ce774be937cb8ca1a5284e16d9ad2c9076450262b35a342d63b2082cbb1e6e",
      "transactionType": "CALL",
      "contractName": null,
      "contractAddress": "0x82b49897922ea1f4feae6c84c6fc91cd0a0cfdc5",
      "function": "setGuardian(address)",
      "arguments": [
        "0xa53A6fE2d8Ad977aD926C485343Ba39f32D3A3F6"
      ],
      "transaction": {
        "from": "0x51336769321de54925e2da6881d7bdcb02258d5e",
        "to": "0x82b49897922ea1f4feae6c84c6fc91cd0a0cfdc5",
        "gas": "0x1072b",
        "value": "0x0",
        "input": "0x8a0dac4a000000000000000000000000a53a6fe2d8ad977ad926c485343ba39f32d3a3f6",
        "nonce": "0x122",
        "chainId": "0x4268"
      },
      "additionalContracts": [],
      "isFixedGasLimit": false
    }
  ],
  "receipts": [
    {
      "status": "0x1",
      "cumulativeGasUsed": "0x40bdcf",
      "logs": [
        {
          "address": "0x358c4f04537151f1662a06ac8f33b7eacc1d5978",
          "topics": [
            "0x8be0079c531659141344cd1fd0a4f28419497f9722a3daafe3b4186f6b6457e0",
            "0x00000000000000000000000051336769321de54925e2da6881d7bdcb02258d5e",
            "0x000000000000000000000000a53a6fe2d8ad977ad926c485343ba39f32d3a3f6"
          ],
          "data": "0x",
          "blockHash": "0x8bddaf02faee8ddc89912dd86414feb0c86991e5ba1c5cdc82124e1131664da8",
          "blockNumber": "0x189c9d",
          "transactionHash": "0x49e6d34db1a69ded0dea1647e94beaa1e8bdbd3d37e475c046b65c7f70a90ec5",
          "transactionIndex": "0x1c",
          "logIndex": "0x34",
          "removed": false
        }
      ],
      "logsBloom": "0x00000000000000000000000000000000000000000400000000800000000000000000000000000000000000000000000000000000000000000000000000000002000000000000000000000000002000000001000000000000000000000000000000000002000000000000000000000000000000000000000000000000000000400000000000000000000000000000000002000000002000000000000000000000000000000000000080000000000000000000000000000000000000000000000000000000400000000000000000000000000000000000000000000000000000000000000000000000000000020000000000000000000000000000000000000000",
      "type": "0x2",
      "transactionHash": "0x49e6d34db1a69ded0dea1647e94beaa1e8bdbd3d37e475c046b65c7f70a90ec5",
      "transactionIndex": "0x1c",
      "blockHash": "0x8bddaf02faee8ddc89912dd86414feb0c86991e5ba1c5cdc82124e1131664da8",
      "blockNumber": "0x189c9d",
      "gasUsed": "0x8356",
      "effectiveGasPrice": "0x6575dd7e",
      "from": "0x51336769321de54925e2da6881d7bdcb02258d5e",
      "to": "0x358c4f04537151f1662a06ac8f33b7eacc1d5978",
      "contractAddress": null
    },
    {
      "status": "0x1",
      "cumulativeGasUsed": "0x4171c1",
      "logs": [],
      "logsBloom": "0x00000000000000000000000000000000000000000000000000000000000000000000000000000000000000000000000000000000000000000000000000000000000000000000000000000000000000000000000000000000000000000000000000000000000000000000000000000000000000000000000000000000000000000000000000000000000000000000000000000000000000000000000000000000000000000000000000000000000000000000000000000000000000000000000000000000000000000000000000000000000000000000000000000000000000000000000000000000000000000000000000000000000000000000000000000000",
      "type": "0x2",
      "transactionHash": "0x72ce774be937cb8ca1a5284e16d9ad2c9076450262b35a342d63b2082cbb1e6e",
      "transactionIndex": "0x1d",
      "blockHash": "0x8bddaf02faee8ddc89912dd86414feb0c86991e5ba1c5cdc82124e1131664da8",
      "blockNumber": "0x189c9d",
      "gasUsed": "0xb3f2",
      "effectiveGasPrice": "0x6575dd7e",
      "from": "0x51336769321de54925e2da6881d7bdcb02258d5e",
      "to": "0x82b49897922ea1f4feae6c84c6fc91cd0a0cfdc5",
      "contractAddress": null
    }
  ],
  "libraries": [],
  "pending": [],
  "returns": {},
  "timestamp": 1716692732,
  "chain": 17000,
  "commit": "77ee1a8"
}