{
  "transactions": [
    {
      "hash": "0xe3c971982bad2717aa0beb0482c810b90b2f6492ec7fc68420e1d7273d250b22",
      "transactionType": "CALL",
      "contractName": null,
      "contractAddress": "0xaaaaa511b6f8db284ffab43ea7bb31390fa82491",
      "function": "transferOwnership(address)",
      "arguments": [
        "0xa53A6fE2d8Ad977aD926C485343Ba39f32D3A3F6"
      ],
      "transaction": {
        "from": "0x51336769321de54925e2da6881d7bdcb02258d5e",
        "to": "0xaaaaa511b6f8db284ffab43ea7bb31390fa82491",
        "gas": "0xb523",
        "value": "0x0",
        "input": "0xf2fde38b000000000000000000000000a53a6fe2d8ad977ad926c485343ba39f32d3a3f6",
        "nonce": "0x135",
        "chainId": "0x4268"
      },
      "additionalContracts": [],
      "isFixedGasLimit": false
    },
    {
      "hash": "0xabadf9d7524a06a92939a3f81ee31dffa8296c6cecc9e7ff8232eef589a8fb59",
      "transactionType": "CALL",
      "contractName": null,
      "contractAddress": "0x17a8334d336f1691cdea759f62a586bd64e4b48e",
      "function": "setGuardian(address)",
      "arguments": [
        "0xa53A6fE2d8Ad977aD926C485343Ba39f32D3A3F6"
      ],
      "transaction": {
        "from": "0x51336769321de54925e2da6881d7bdcb02258d5e",
        "to": "0x17a8334d336f1691cdea759f62a586bd64e4b48e",
        "gas": "0x1072b",
        "value": "0x0",
        "input": "0x8a0dac4a000000000000000000000000a53a6fe2d8ad977ad926c485343ba39f32d3a3f6",
        "nonce": "0x136",
        "chainId": "0x4268"
      },
      "additionalContracts": [],
      "isFixedGasLimit": false
    }
  ],
  "receipts": [
    {
      "status": "0x1",
      "cumulativeGasUsed": "0x35ecac",
      "logs": [
        {
          "address": "0xaaaaa511b6f8db284ffab43ea7bb31390fa82491",
          "topics": [
            "0x8be0079c531659141344cd1fd0a4f28419497f9722a3daafe3b4186f6b6457e0",
            "0x00000000000000000000000051336769321de54925e2da6881d7bdcb02258d5e",
            "0x000000000000000000000000a53a6fe2d8ad977ad926c485343ba39f32d3a3f6"
          ],
          "data": "0x",
          "blockHash": "0xfac07c80651255bc506a6d3f82c3986547f512e74afaa269d6713264dd83945b",
          "blockNumber": "0x18a979",
          "transactionHash": "0xe3c971982bad2717aa0beb0482c810b90b2f6492ec7fc68420e1d7273d250b22",
          "transactionIndex": "0x23",
          "logIndex": "0x40",
          "removed": false
        }
      ],
      "logsBloom": "0x00000000000000000000000000000000000000000400000000800000000000000000000000000000000000000000000000000000000000000000000000000002000020000000000000000000002000000001000000000000000000000000000000000002000000000000000000000000000000000000000000000000000000400000000000000000000000000000000002000000000000000000001000000000000000000000000000000000000000000000000000000000000000000000000000000000400000000000000000000000000000000000000000000000000000000000000000000000000000000000000000000000000008000000000000000000",
      "type": "0x2",
      "transactionHash": "0xe3c971982bad2717aa0beb0482c810b90b2f6492ec7fc68420e1d7273d250b22",
      "transactionIndex": "0x23",
      "blockHash": "0xfac07c80651255bc506a6d3f82c3986547f512e74afaa269d6713264dd83945b",
      "blockNumber": "0x18a979",
      "gasUsed": "0x8324",
      "effectiveGasPrice": "0x522b8c74",
      "from": "0x51336769321de54925e2da6881d7bdcb02258d5e",
      "to": "0xaaaaa511b6f8db284ffab43ea7bb31390fa82491",
      "contractAddress": null
    },
    {
      "status": "0x1",
      "cumulativeGasUsed": "0x36a09e",
      "logs": [],
      "logsBloom": "0x00000000000000000000000000000000000000000000000000000000000000000000000000000000000000000000000000000000000000000000000000000000000000000000000000000000000000000000000000000000000000000000000000000000000000000000000000000000000000000000000000000000000000000000000000000000000000000000000000000000000000000000000000000000000000000000000000000000000000000000000000000000000000000000000000000000000000000000000000000000000000000000000000000000000000000000000000000000000000000000000000000000000000000000000000000000",
      "type": "0x2",
      "transactionHash": "0xabadf9d7524a06a92939a3f81ee31dffa8296c6cecc9e7ff8232eef589a8fb59",
      "transactionIndex": "0x24",
      "blockHash": "0xfac07c80651255bc506a6d3f82c3986547f512e74afaa269d6713264dd83945b",
      "blockNumber": "0x18a979",
      "gasUsed": "0xb3f2",
      "effectiveGasPrice": "0x522b8c74",
      "from": "0x51336769321de54925e2da6881d7bdcb02258d5e",
      "to": "0x17a8334d336f1691cdea759f62a586bd64e4b48e",
      "contractAddress": null
    }
  ],
  "libraries": [],
  "pending": [],
  "returns": {},
  "timestamp": 1716738954,
  "chain": 17000,
  "commit": "33a4c77"
}