{
  "transactions": [
    {
      "hash": "0x6640fb6ad3360bee563687820e1763f51f1a4cb35fe9ff8e47b5340306deffe6",
      "transactionType": "CALL",
      "contractName": null,
      "contractAddress": "0xaaaaaf0623026cc96bf58bacb0f68b5e75980212",
      "function": "grantRole(bytes32,address)",
      "arguments": [
        "0x0000000000000000000000000000000000000000000000000000000000000000",
        "0xe250fbBc81Af47663a6E9a38eE77e96B1a93bf6B"
      ],
      "transaction": {
        "from": "0x51336769321de54925e2da6881d7bdcb02258d5e",
        "to": "0xaaaaaf0623026cc96bf58bacb0f68b5e75980212",
        "gas": "0x12f15",
        "value": "0x0",
        "input": "0x2f2ff15d0000000000000000000000000000000000000000000000000000000000000000000000000000000000000000e250fbbc81af47663a6e9a38ee77e96b1a93bf6b",
        "nonce": "0x188",
        "chainId": "0x4268"
      },
      "additionalContracts": [],
      "isFixedGasLimit": false
    },
    {
      "hash": "0xde47a2971735948abc620e0db20c1d787ecebc8afcf9872b29078703f6ab9765",
      "transactionType": "CALL",
      "contractName": null,
      "contractAddress": "0xaaaaaf0623026cc96bf58bacb0f68b5e75980212",
      "function": "renounceRole(bytes32,address)",
      "arguments": [
        "0x0000000000000000000000000000000000000000000000000000000000000000",
        "0x51336769321dE54925E2da6881D7BDCb02258D5e"
      ],
      "transaction": {
        "from": "0x51336769321de54925e2da6881d7bdcb02258d5e",
        "to": "0xaaaaaf0623026cc96bf58bacb0f68b5e75980212",
        "gas": "0xa00d",
        "value": "0x0",
        "input": "0x36568abe000000000000000000000000000000000000000000000000000000000000000000000000000000000000000051336769321de54925e2da6881d7bdcb02258d5e",
        "nonce": "0x189",
        "chainId": "0x4268"
      },
      "additionalContracts": [],
      "isFixedGasLimit": false
    },
    {
      "hash": "0xd531db6bfd9df6588116a191404195553475ad9464f98cbd00241658d4827ec6",
      "transactionType": "CALL",
      "contractName": null,
      "contractAddress": "0x73296f37167b6c8386151a33a8159f0abc5684f4",
      "function": "setGuardian(address)",
      "arguments": [
        "0xe250fbBc81Af47663a6E9a38eE77e96B1a93bf6B"
      ],
      "transaction": {
        "from": "0x51336769321de54925e2da6881d7bdcb02258d5e",
        "to": "0x73296f37167b6c8386151a33a8159f0abc5684f4",
        "gas": "0x1072b",
        "value": "0x0",
        "input": "0x8a0dac4a000000000000000000000000e250fbbc81af47663a6e9a38ee77e96b1a93bf6b",
        "nonce": "0x18a",
        "chainId": "0x4268"
      },
      "additionalContracts": [],
      "isFixedGasLimit": false
    },
    {
      "hash": "0xaa13c2fedd52a6d1e584d756c10b4ef0f8337337718bcb0760226a31113b10e6",
      "transactionType": "CALL",
      "contractName": null,
      "contractAddress": "0x4e896da89832b2583d2fe6998c1d8fcfbaa84781",
      "function": "transferOwnership(address)",
      "arguments": [
        "0xe250fbBc81Af47663a6E9a38eE77e96B1a93bf6B"
      ],
      "transaction": {
        "from": "0x51336769321de54925e2da6881d7bdcb02258d5e",
        "to": "0x4e896da89832b2583d2fe6998c1d8fcfbaa84781",
        "gas": "0x9a0c",
        "value": "0x0",
        "input": "0xf2fde38b000000000000000000000000e250fbbc81af47663a6e9a38ee77e96b1a93bf6b",
        "nonce": "0x18b",
        "chainId": "0x4268"
      },
      "additionalContracts": [],
      "isFixedGasLimit": false
    }
  ],
  "receipts": [
    {
      "status": "0x1",
      "cumulativeGasUsed": "0x15df30",
      "logs": [
        {
          "address": "0xaaaaaf0623026cc96bf58bacb0f68b5e75980212",
          "topics": [
            "0x2f8788117e7eff1d82e926ec794901d17c78024a50270940304540a733656f0d",
            "0x0000000000000000000000000000000000000000000000000000000000000000",
            "0x000000000000000000000000e250fbbc81af47663a6e9a38ee77e96b1a93bf6b",
            "0x00000000000000000000000051336769321de54925e2da6881d7bdcb02258d5e"
          ],
          "data": "0x",
          "blockHash": "0x942394a860d07ba9542e4debf251bffc5a656755d531a909d42da911c6ab8a38",
          "blockNumber": "0x1ae285",
          "transactionHash": "0x6640fb6ad3360bee563687820e1763f51f1a4cb35fe9ff8e47b5340306deffe6",
          "transactionIndex": "0x10",
          "logIndex": "0x12",
          "removed": false
        }
      ],
      "logsBloom": "0x00000004000000000000000000000000000000000401000000000000004000000000000000000000000000000000000000000000000000000000000000000000000000000000000000000000000800000000000000000000000000000000000000000000020000000000000000000800000000000000000000000000004000000000000000000000000000000000000002000000000000000000000000000000000000000000000000000000000000000000000000000000001020000000000000000000410000000000000000000000000000000000000100000000000020000000000000000000000000000000000000000000000000000000000000000000",
      "type": "0x2",
      "transactionHash": "0x6640fb6ad3360bee563687820e1763f51f1a4cb35fe9ff8e47b5340306deffe6",
      "transactionIndex": "0x10",
      "blockHash": "0x942394a860d07ba9542e4debf251bffc5a656755d531a909d42da911c6ab8a38",
      "blockNumber": "0x1ae285",
      "gasUsed": "0xdb6e",
      "effectiveGasPrice": "0x43685623",
      "from": "0x51336769321de54925e2da6881d7bdcb02258d5e",
      "to": "0xaaaaaf0623026cc96bf58bacb0f68b5e75980212",
      "contractAddress": null
    },
    {
      "status": "0x1",
      "cumulativeGasUsed": "0x165310",
      "logs": [
        {
          "address": "0xaaaaaf0623026cc96bf58bacb0f68b5e75980212",
          "topics": [
            "0xf6391f5c32d9c69d2a47ea670b442974b53935d1edc7fd64eb21e047a839171b",
            "0x0000000000000000000000000000000000000000000000000000000000000000",
            "0x00000000000000000000000051336769321de54925e2da6881d7bdcb02258d5e",
            "0x00000000000000000000000051336769321de54925e2da6881d7bdcb02258d5e"
          ],
          "data": "0x",
          "blockHash": "0x942394a860d07ba9542e4debf251bffc5a656755d531a909d42da911c6ab8a38",
          "blockNumber": "0x1ae285",
          "transactionHash": "0xde47a2971735948abc620e0db20c1d787ecebc8afcf9872b29078703f6ab9765",
          "transactionIndex": "0x11",
          "logIndex": "0x13",
          "removed": false
        }
      ],
      "logsBloom": "0x00000000000000000000000000000000000000000400000000000000004000000000000000000000000000000000000000200000000000000000000000000000000000000000000000000000000800000000000000000000000000000000000040000000020000000000000000000800000000000000000000000000000000000000000040000000000000000000000002000000000000000000000000000000000000000000000000000000000000000000000000000000000000000000000000000000410000000000000000000000000000000000000000000000000020000000000000000000000000000000000000000000000000000000000000000000",
      "type": "0x2",
      "transactionHash": "0xde47a2971735948abc620e0db20c1d787ecebc8afcf9872b29078703f6ab9765",
      "transactionIndex": "0x11",
      "blockHash": "0x942394a860d07ba9542e4debf251bffc5a656755d531a909d42da911c6ab8a38",
      "blockNumber": "0x1ae285",
      "gasUsed": "0x73e0",
      "effectiveGasPrice": "0x43685623",
      "from": "0x51336769321de54925e2da6881d7bdcb02258d5e",
      "to": "0xaaaaaf0623026cc96bf58bacb0f68b5e75980212",
      "contractAddress": null
    },
    {
      "status": "0x1",
      "cumulativeGasUsed": "0x170702",
      "logs": [],
      "logsBloom": "0x00000000000000000000000000000000000000000000000000000000000000000000000000000000000000000000000000000000000000000000000000000000000000000000000000000000000000000000000000000000000000000000000000000000000000000000000000000000000000000000000000000000000000000000000000000000000000000000000000000000000000000000000000000000000000000000000000000000000000000000000000000000000000000000000000000000000000000000000000000000000000000000000000000000000000000000000000000000000000000000000000000000000000000000000000000000",
      "type": "0x2",
      "transactionHash": "0xd531db6bfd9df6588116a191404195553475ad9464f98cbd00241658d4827ec6",
      "transactionIndex": "0x12",
      "blockHash": "0x942394a860d07ba9542e4debf251bffc5a656755d531a909d42da911c6ab8a38",
      "blockNumber": "0x1ae285",
      "gasUsed": "0xb3f2",
      "effectiveGasPrice": "0x43685623",
      "from": "0x51336769321de54925e2da6881d7bdcb02258d5e",
      "to": "0x73296f37167b6c8386151a33a8159f0abc5684f4",
      "contractAddress": null
    },
    {
      "status": "0x1",
      "cumulativeGasUsed": "0x17768a",
      "logs": [
        {
          "address": "0x4e896da89832b2583d2fe6998c1d8fcfbaa84781",
          "topics": [
            "0x8be0079c531659141344cd1fd0a4f28419497f9722a3daafe3b4186f6b6457e0",
            "0x00000000000000000000000051336769321de54925e2da6881d7bdcb02258d5e",
            "0x000000000000000000000000e250fbbc81af47663a6e9a38ee77e96b1a93bf6b"
          ],
          "data": "0x",
          "blockHash": "0x942394a860d07ba9542e4debf251bffc5a656755d531a909d42da911c6ab8a38",
          "blockNumber": "0x1ae285",
          "transactionHash": "0xaa13c2fedd52a6d1e584d756c10b4ef0f8337337718bcb0760226a31113b10e6",
          "transactionIndex": "0x13",
          "logIndex": "0x14",
          "removed": false
        }
      ],
      "logsBloom": "0x00000000000000000000000000000000000000000401000000800000000000000000000000000000000000000000000000000000000000000000000000000000000000000000010000000000000000000001000000000000000000000000000000000000000000000000000000000000000000000000000000000000004000400000000008000000000000000000000002000000000000000000000000000000000000000000000000000000000000000000000000000000000020000000000000000000400000000000000000000000000000000000000000000000000000000000000000000000000000000000000000000000000000008000000000000000",
      "type": "0x2",
      "transactionHash": "0xaa13c2fedd52a6d1e584d756c10b4ef0f8337337718bcb0760226a31113b10e6",
      "transactionIndex": "0x13",
      "blockHash": "0x942394a860d07ba9542e4debf251bffc5a656755d531a909d42da911c6ab8a38",
      "blockNumber": "0x1ae285",
      "gasUsed": "0x6f88",
      "effectiveGasPrice": "0x43685623",
      "from": "0x51336769321de54925e2da6881d7bdcb02258d5e",
      "to": "0x4e896da89832b2583d2fe6998c1d8fcfbaa84781",
      "contractAddress": null
    }
  ],
  "libraries": [],
  "pending": [],
  "returns": {},
  "timestamp": 1718731374,
  "chain": 17000,
  "commit": "47860b0"
}