{
  "transactions": [
    {
      "hash": "0xd5573860eacba610deed14b9eb369f5b33b5a459c8376f8e297b9a69e1c76139",
      "transactionType": "CALL",
      "contractName": null,
      "contractAddress": "0x2f521b7c314952a5ed7849453a7d5a6ca2a00cdb",
      "function": "grantRole(bytes32,address)",
      "arguments": [
        "0x0000000000000000000000000000000000000000000000000000000000000000",
        "0xa53A6fE2d8Ad977aD926C485343Ba39f32D3A3F6"
      ],
      "transaction": {
        "from": "0x51336769321de54925e2da6881d7bdcb02258d5e",
        "to": "0x2f521b7c314952a5ed7849453a7d5a6ca2a00cdb",
        "gas": "0x12f15",
        "value": "0x0",
        "input": "0x2f2ff15d0000000000000000000000000000000000000000000000000000000000000000000000000000000000000000a53a6fe2d8ad977ad926c485343ba39f32d3a3f6",
        "nonce": "0x141",
        "chainId": "0x4268"
      },
      "additionalContracts": [],
      "isFixedGasLimit": false
    },
    {
      "hash": "0x13a94516175034734e33cefd3f69e24598490b39f683ee22bfc7572561d3ff85",
      "transactionType": "CALL",
      "contractName": null,
      "contractAddress": "0x2f521b7c314952a5ed7849453a7d5a6ca2a00cdb",
      "function": "revokeRole(bytes32,address)",
      "arguments": [
        "0x0000000000000000000000000000000000000000000000000000000000000000",
        "0x1804c8AB1F12E6bbf3894d4083f33e07309d1f38"
      ],
      "transaction": {
        "from": "0x51336769321de54925e2da6881d7bdcb02258d5e",
        "to": "0x2f521b7c314952a5ed7849453a7d5a6ca2a00cdb",
        "gas": "0xb758",
        "value": "0x0",
        "input": "0xd547741f00000000000000000000000000000000000000000000000000000000000000000000000000000000000000001804c8ab1f12e6bbf3894d4083f33e07309d1f38",
        "nonce": "0x142",
        "chainId": "0x4268"
      },
      "additionalContracts": [],
      "isFixedGasLimit": false
    },
    {
      "hash": "0x33ea91677e7f5a9d71716c83acbd530af691fb3f57dc55f48a79603f5fc0b9a4",
      "transactionType": "CALL",
      "contractName": null,
      "contractAddress": "0x49b1755830596a5529cea60a4f07a62ee6ab3c55",
      "function": "setGuardian(address)",
      "arguments": [
        "0xa53A6fE2d8Ad977aD926C485343Ba39f32D3A3F6"
      ],
      "transaction": {
        "from": "0x51336769321de54925e2da6881d7bdcb02258d5e",
        "to": "0x49b1755830596a5529cea60a4f07a62ee6ab3c55",
        "gas": "0x1072b",
        "value": "0x0",
        "input": "0x8a0dac4a000000000000000000000000a53a6fe2d8ad977ad926c485343ba39f32d3a3f6",
        "nonce": "0x143",
        "chainId": "0x4268"
      },
      "additionalContracts": [],
      "isFixedGasLimit": false
    }
  ],
  "receipts": [
    {
      "status": "0x1",
      "cumulativeGasUsed": "0x1c7632a",
      "logs": [
        {
          "address": "0x2f521b7c314952a5ed7849453a7d5a6ca2a00cdb",
          "topics": [
            "0x2f8788117e7eff1d82e926ec794901d17c78024a50270940304540a733656f0d",
            "0x0000000000000000000000000000000000000000000000000000000000000000",
            "0x000000000000000000000000a53a6fe2d8ad977ad926c485343ba39f32d3a3f6",
            "0x00000000000000000000000051336769321de54925e2da6881d7bdcb02258d5e"
          ],
          "data": "0x",
          "blockHash": "0x305c1aeff0171f1ea34e3a1068361fcb00be932bd355d9679cc25dc26f6b3b8a",
          "blockNumber": "0x193d7d",
          "transactionHash": "0xd5573860eacba610deed14b9eb369f5b33b5a459c8376f8e297b9a69e1c76139",
          "transactionIndex": "0x8a",
          "logIndex": "0xe3",
          "removed": false
        }
      ],
      "logsBloom": "0x00000004000000000000000000000020000000000400000000000000000000000000000000000000000000000000000000000000000000000000000000000002000000000000000000000000002000000000000000000000000000000000000000000002020000000000000000000800000000000000000000000000000000000000000000000000000000000000000002000000000000000000000000000000000000000000000000000000000200000000000000000000001000000000000000000800400000000000000000000000000000000000000100000000000020000000000000000000000000000000000000000000000000000000000000000000",
      "type": "0x2",
      "transactionHash": "0xd5573860eacba610deed14b9eb369f5b33b5a459c8376f8e297b9a69e1c76139",
      "transactionIndex": "0x8a",
      "blockHash": "0x305c1aeff0171f1ea34e3a1068361fcb00be932bd355d9679cc25dc26f6b3b8a",
      "blockNumber": "0x193d7d",
      "gasUsed": "0xdb6e",
      "effectiveGasPrice": "0x353ce3a8",
      "from": "0x51336769321de54925e2da6881d7bdcb02258d5e",
      "to": "0x2f521b7c314952a5ed7849453a7d5a6ca2a00cdb",
      "contractAddress": null
    },
    {
      "status": "0x1",
      "cumulativeGasUsed": "0x1c7e7e8",
      "logs": [],
      "logsBloom": "0x00000000000000000000000000000000000000000000000000000000000000000000000000000000000000000000000000000000000000000000000000000000000000000000000000000000000000000000000000000000000000000000000000000000000000000000000000000000000000000000000000000000000000000000000000000000000000000000000000000000000000000000000000000000000000000000000000000000000000000000000000000000000000000000000000000000000000000000000000000000000000000000000000000000000000000000000000000000000000000000000000000000000000000000000000000000",
      "type": "0x2",
      "transactionHash": "0x13a94516175034734e33cefd3f69e24598490b39f683ee22bfc7572561d3ff85",
      "transactionIndex": "0x8b",
      "blockHash": "0x305c1aeff0171f1ea34e3a1068361fcb00be932bd355d9679cc25dc26f6b3b8a",
      "blockNumber": "0x193d7d",
      "gasUsed": "0x84be",
      "effectiveGasPrice": "0x353ce3a8",
      "from": "0x51336769321de54925e2da6881d7bdcb02258d5e",
      "to": "0x2f521b7c314952a5ed7849453a7d5a6ca2a00cdb",
      "contractAddress": null
    },
    {
      "status": "0x1",
      "cumulativeGasUsed": "0x1c89bda",
      "logs": [],
      "logsBloom": "0x00000000000000000000000000000000000000000000000000000000000000000000000000000000000000000000000000000000000000000000000000000000000000000000000000000000000000000000000000000000000000000000000000000000000000000000000000000000000000000000000000000000000000000000000000000000000000000000000000000000000000000000000000000000000000000000000000000000000000000000000000000000000000000000000000000000000000000000000000000000000000000000000000000000000000000000000000000000000000000000000000000000000000000000000000000000",
      "type": "0x2",
      "transactionHash": "0x33ea91677e7f5a9d71716c83acbd530af691fb3f57dc55f48a79603f5fc0b9a4",
      "transactionIndex": "0x8c",
      "blockHash": "0x305c1aeff0171f1ea34e3a1068361fcb00be932bd355d9679cc25dc26f6b3b8a",
      "blockNumber": "0x193d7d",
      "gasUsed": "0xb3f2",
      "effectiveGasPrice": "0x353ce3a8",
      "from": "0x51336769321de54925e2da6881d7bdcb02258d5e",
      "to": "0x49b1755830596a5529cea60a4f07a62ee6ab3c55",
      "contractAddress": null
    }
  ],
  "libraries": [],
  "pending": [],
  "returns": {},
  "timestamp": 1717283189,
  "chain": 17000,
  "commit": "eb932fd"
}