{
  "transactions": [
    {
      "hash": "0x5e874a1a937b16381097a767dc42aeb85e8c1000427411f8882ed5da9262f588",
      "transactionType": "CALL",
      "contractName": null,
      "contractAddress": "0x895af2fa9c94d4793be894a7b25e248f85c300ec",
      "function": "transferOwnership(address)",
      "arguments": [
        "0xa53A6fE2d8Ad977aD926C485343Ba39f32D3A3F6"
      ],
      "transaction": {
        "from": "0x51336769321de54925e2da6881d7bdcb02258d5e",
        "to": "0x895af2fa9c94d4793be894a7b25e248f85c300ec",
        "gas": "0xb523",
        "value": "0x0",
        "input": "0xf2fde38b000000000000000000000000a53a6fe2d8ad977ad926c485343ba39f32d3a3f6",
        "nonce": "0x115",
        "chainId": "0x4268"
      },
      "additionalContracts": [],
      "isFixedGasLimit": false
    }
  ],
  "receipts": [
    {
      "status": "0x1",
      "cumulativeGasUsed": "0x20ff21",
      "logs": [
        {
          "address": "0x895af2fa9c94d4793be894a7b25e248f85c300ec",
          "topics": [
            "0x8be0079c531659141344cd1fd0a4f28419497f9722a3daafe3b4186f6b6457e0",
            "0x00000000000000000000000051336769321de54925e2da6881d7bdcb02258d5e",
            "0x000000000000000000000000a53a6fe2d8ad977ad926c485343ba39f32d3a3f6"
          ],
          "data": "0x",
          "blockHash": "0x8d7704d3d7dd481c89e25a620df8b5e87ae9829877a0419a4b8f1817f649345f",
          "blockNumber": "0x189bdd",
          "transactionHash": "0x5e874a1a937b16381097a767dc42aeb85e8c1000427411f8882ed5da9262f588",
          "transactionIndex": "0xb",
          "logIndex": "0x1a",
          "removed": false
        }
      ],
      "logsBloom": "0x00000000000000000000000000000000000000000400000000800000000000000000000000000000000000000000000000000000000000000000000000000012000000000000000000000000002000000001000000000000000000000000000000000002000000000000000000000000000000000000000000000000000000400000000000000000000000000000000002000000000000000000000000000000000000000000000000000000800000000000000000000000000000000000000000000000400000000000000000000000000000000000000000000000000000000000000000000000010000000000000000000000000000000000000000000000",
      "type": "0x2",
      "transactionHash": "0x5e874a1a937b16381097a767dc42aeb85e8c1000427411f8882ed5da9262f588",
      "transactionIndex": "0xb",
      "blockHash": "0x8d7704d3d7dd481c89e25a620df8b5e87ae9829877a0419a4b8f1817f649345f",
      "blockNumber": "0x189bdd",
      "gasUsed": "0x8324",
      "effectiveGasPrice": "0x9d8ef3b5",
      "from": "0x51336769321de54925e2da6881d7bdcb02258d5e",
      "to": "0x895af2fa9c94d4793be894a7b25e248f85c300ec",
      "contractAddress": null
    }
  ],
  "libraries": [],
  "pending": [],
  "returns": {},
  "timestamp": 1716690027,
  "chain": 17000,
  "commit": "77ee1a8"
}