{
  "transactions": [
    {
      "hash": "0x7d1b7d365f56010ca9d6f2b2c21f4e8b1b57ac6c41d76d9e4baef076e2e5b8e3",
      "transactionType": "CREATE",
      "contractName": "APEthEarlyDeposits",
      "contractAddress": "0x4e896da89832b2583d2fe6998c1d8fcfbaa84781",
      "function": null,
      "arguments": [
        "0x51336769321dE54925E2da6881D7BDCb02258D5e",
        "0xAAAAAF0623026CC96BF58bAcB0f68b5e75980212"
      ],
      "transaction": {
        "from": "0x51336769321de54925e2da6881d7bdcb02258d5e",
        "gas": "0x91c0d",
        "value": "0x0",
        "input": "0x60a060405234801561001057600080fd5b5060405161081038038061081083398101604081905261002f916100e6565b816001600160a01b03811661005e57604051631e4fbdf760e01b81526000600482015260240160405180910390fd5b6100678161007a565b506001600160a01b031660805250610119565b600080546001600160a01b038381166001600160a01b0319831681178455604051919092169283917f8be0079c531659141344cd1fd0a4f28419497f9722a3daafe3b4186f6b6457e09190a35050565b80516001600160a01b03811681146100e157600080fd5b919050565b600080604083850312156100f957600080fd5b610102836100ca565b9150610110602084016100ca565b90509250929050565b6080516106d561013b600039600081816103ec015261048701526106d56000f3fe6080604052600436106100745760003560e01c8063f17417f91161004e578063f17417f9146100e4578063f2fde38b14610104578063f340fa0114610124578063fc7e286d1461013757610084565b80633ccfd60b1461008d578063715018a6146100a25780638da5cb5b146100b757610084565b366100845761008233610172565b005b61008233610172565b34801561009957600080fd5b506100826101e3565b3480156100ae57600080fd5b5061008261028b565b3480156100c357600080fd5b506000546040516001600160a01b0390911681526020015b60405180910390f35b3480156100f057600080fd5b506100826100ff36600461054b565b61029f565b34801561011057600080fd5b5061008261011f3660046105c0565b6102f8565b6100826101323660046105c0565b610172565b34801561014357600080fd5b506101646101523660046105c0565b60016020526000908152604090205481565b6040519081526020016100db565b6001600160a01b0381166000908152600160205260408120805434929061019a908490610606565b9091555050604080516001600160a01b03831681523460208201527fe1fffcc4923d04b559f4d29a8bfc6cda04eb5b0d3c460751c2402c5c5cc9109c910160405180910390a150565b33600081815260016020526040808220805490839055905190929083908381818185875af1925050503d8060008114610238576040519150601f19603f3d011682016040523d82523d6000602084013e61023d565b606091505b505090508061024e5761024e61061f565b60408051338152602081018490527f7fcf532c15f0a6db0bd6d0e038bea71d30d808c7d98cb3bf7268a95bf5081b65910160405180910390a15050565b61029361033b565b61029d6000610368565b565b6102a761033b565b60005b818110156102f3576102e18383838181106102c7576102c7610635565b90506020020160208101906102dc91906105c0565b6103b8565b806102eb8161064b565b9150506102aa565b505050565b61030061033b565b6001600160a01b03811661032f57604051631e4fbdf760e01b8152600060048201526024015b60405180910390fd5b61033881610368565b50565b6000546001600160a01b0316331461029d5760405163118cdaa760e01b8152336004820152602401610326565b600080546001600160a01b038381166001600160a01b0319831681178455604051919092169283917f8be0079c531659141344cd1fd0a4f28419497f9722a3daafe3b4186f6b6457e09190a35050565b6001600160a01b0380821660009081526001602090815260408083208054908490558151631249c58b60e01b8152915190947f00000000000000000000000000000000000000000000000000000000000000001692631249c58b92869260048083019392829003018185885af1158015610436573d6000803e3d6000fd5b50505050506040513d601f19601f8201168201806040525081019061045b9190610664565b60405163a9059cbb60e01b81526001600160a01b038581166004830152602482018390529192506000917f0000000000000000000000000000000000000000000000000000000000000000169063a9059cbb906044016020604051808303816000875af11580156104d0573d6000803e3d6000fd5b505050506040513d601f19601f820116820180604052508101906104f4919061067d565b9050806105035761050361061f565b604080516001600160a01b0386168152602081018490527f30385c845b448a36257a6a1716e6ad2e1bc2cbe333cde1e69fe849ad6511adfe910160405180910390a150505050565b6000806020838503121561055e57600080fd5b823567ffffffffffffffff8082111561057657600080fd5b818501915085601f83011261058a57600080fd5b81358181111561059957600080fd5b8660208260051b85010111156105ae57600080fd5b60209290920196919550909350505050565b6000602082840312156105d257600080fd5b81356001600160a01b03811681146105e957600080fd5b9392505050565b634e487b7160e01b600052601160045260246000fd5b80820180821115610619576106196105f0565b92915050565b634e487b7160e01b600052600160045260246000fd5b634e487b7160e01b600052603260045260246000fd5b60006001820161065d5761065d6105f0565b5060010190565b60006020828403121561067657600080fd5b5051919050565b60006020828403121561068f57600080fd5b815180151581146105e957600080fdfea2646970667358221220c3d12667d156f9d09b11fe5c47f26f70cfd4ef81dc58e74b1ea8ecb313a0651364736f6c6343000814003300000000000000000000000051336769321de54925e2da6881d7bdcb02258d5e000000000000000000000000aaaaaf0623026cc96bf58bacb0f68b5e75980212",
        "nonce": "0x186",
        "chainId": "0x4268"
      },
      "additionalContracts": [],
      "isFixedGasLimit": false
    },
    {
      "hash": "0x3bd0f9e031ea2b8b5fe0f595b3283afda55948e5f2a24ce079c1957cb1d4003b",
      "transactionType": "CALL",
      "contractName": null,
      "contractAddress": "0xaaaaaf0623026cc96bf58bacb0f68b5e75980212",
      "function": "grantRole(bytes32,address)",
      "arguments": [
        "0x295f55eb38fd730aba310b22a9da9b20c8edd7351d8d61575c6b7f1783f3a5e8",
        "0x4E896dA89832b2583d2fe6998c1d8fcfBAA84781"
      ],
      "transaction": {
        "from": "0x51336769321de54925e2da6881d7bdcb02258d5e",
        "to": "0xaaaaaf0623026cc96bf58bacb0f68b5e75980212",
        "gas": "0x13127",
        "value": "0x0",
        "input": "0x2f2ff15d295f55eb38fd730aba310b22a9da9b20c8edd7351d8d61575c6b7f1783f3a5e80000000000000000000000004e896da89832b2583d2fe6998c1d8fcfbaa84781",
        "nonce": "0x187",
        "chainId": "0x4268"
      },
      "additionalContracts": [],
      "isFixedGasLimit": false
    }
  ],
  "receipts": [
    {
      "status": "0x1",
      "cumulativeGasUsed": "0xc4b8c",
      "logs": [
        {
          "address": "0x4e896da89832b2583d2fe6998c1d8fcfbaa84781",
          "topics": [
            "0x8be0079c531659141344cd1fd0a4f28419497f9722a3daafe3b4186f6b6457e0",
            "0x0000000000000000000000000000000000000000000000000000000000000000",
            "0x00000000000000000000000051336769321de54925e2da6881d7bdcb02258d5e"
          ],
          "data": "0x",
          "blockHash": "0xe6283bd1fbaf780b38138048d9abefac99af18aed5ab69dcb8c215f360c94c85",
          "blockNumber": "0x1ae1ca",
          "transactionHash": "0x7d1b7d365f56010ca9d6f2b2c21f4e8b1b57ac6c41d76d9e4baef076e2e5b8e3",
          "transactionIndex": "0xa",
          "logIndex": "0x6",
          "removed": false
        }
      ],
      "logsBloom": "0x00000000000000000000000000000000000000000400000000800000000000000000000000000000000000000000000000000000000000000000000000000000000000000000010000000000000000000001000000000000000000000000000000000000020000000000000000000800000000000000000000000000000000400000000008000000000000000000000002000000000000000000000000000000000000000000000000000000000000000000000000000000000000000000000000000000400000000000000000000000000000000000000000000000000020000000000000000000000000000000000000000000000000008000000000000000",
      "type": "0x2",
      "transactionHash": "0x7d1b7d365f56010ca9d6f2b2c21f4e8b1b57ac6c41d76d9e4baef076e2e5b8e3",
      "transactionIndex": "0xa",
      "blockHash": "0xe6283bd1fbaf780b38138048d9abefac99af18aed5ab69dcb8c215f360c94c85",
      "blockNumber": "0x1ae1ca",
      "gasUsed": "0x70269",
      "effectiveGasPrice": "0x44a9337f",
      "from": "0x51336769321de54925e2da6881d7bdcb02258d5e",
      "to": null,
      "contractAddress": "0x4e896da89832b2583d2fe6998c1d8fcfbaa84781"
    },
    {
      "status": "0x1",
      "cumulativeGasUsed": "0xd287a",
      "logs": [
        {
          "address": "0xaaaaaf0623026cc96bf58bacb0f68b5e75980212",
          "topics": [
            "0x2f8788117e7eff1d82e926ec794901d17c78024a50270940304540a733656f0d",
            "0x295f55eb38fd730aba310b22a9da9b20c8edd7351d8d61575c6b7f1783f3a5e8",
            "0x0000000000000000000000004e896da89832b2583d2fe6998c1d8fcfbaa84781",
            "0x00000000000000000000000051336769321de54925e2da6881d7bdcb02258d5e"
          ],
          "data": "0x",
          "blockHash": "0xe6283bd1fbaf780b38138048d9abefac99af18aed5ab69dcb8c215f360c94c85",
          "blockNumber": "0x1ae1ca",
          "transactionHash": "0x3bd0f9e031ea2b8b5fe0f595b3283afda55948e5f2a24ce079c1957cb1d4003b",
          "transactionIndex": "0xb",
          "logIndex": "0x7",
          "removed": false
        }
      ],
      "logsBloom": "0x00000004000000000000000000000000000000000400000000000000006000000000000000000000000000200000000000000000000000000000000000000000000000008000000000000000000800000000000000000000000000000000000000000400000000000000000000000000000000000000000000000000000000000000000000000000000000000000000002000000000000000000000000000000000000000000000000000000001000000010000000000000001000000000000000000000410000000000000000000000000000000000000100000000000000000000000000000000000000000000000000000000000000000000000000000000",
      "type": "0x2",
      "transactionHash": "0x3bd0f9e031ea2b8b5fe0f595b3283afda55948e5f2a24ce079c1957cb1d4003b",
      "transactionIndex": "0xb",
      "blockHash": "0xe6283bd1fbaf780b38138048d9abefac99af18aed5ab69dcb8c215f360c94c85",
      "blockNumber": "0x1ae1ca",
      "gasUsed": "0xdcee",
      "effectiveGasPrice": "0x44a9337f",
      "from": "0x51336769321de54925e2da6881d7bdcb02258d5e",
      "to": "0xaaaaaf0623026cc96bf58bacb0f68b5e75980212",
      "contractAddress": null
    }
  ],
  "libraries": [],
  "pending": [],
  "returns": {},
  "timestamp": 1718729070,
  "chain": 17000,
  "commit": "47860b0"
}